{
	"contracts/counter.sol": {
		"ProposalContract": {
			"abi": [
				{
					"inputs": [
						{
							"internalType": "string",
							"name": "title",
							"type": "string"
						},
						{
							"internalType": "string",
							"name": "description",
							"type": "string"
						},
						{
							"internalType": "uint256",
							"name": "approve",
							"type": "uint256"
						},
						{
							"internalType": "uint256",
							"name": "reject",
							"type": "uint256"
						},
						{
							"internalType": "uint256",
							"name": "pass",
							"type": "uint256"
						},
						{
							"internalType": "uint256",
							"name": "total_vote_to_end",
							"type": "uint256"
						},
						{
							"internalType": "bool",
							"name": "current_state",
							"type": "bool"
						},
						{
							"internalType": "bool",
							"name": "is_active",
							"type": "bool"
						}
					],
					"stateMutability": "nonpayable",
					"type": "constructor"
				},
				{
					"inputs": [],
					"name": "decrement_counter",
					"outputs": [],
					"stateMutability": "nonpayable",
					"type": "function"
				},
				{
					"inputs": [],
					"name": "get_counter_value",
					"outputs": [
						{
							"internalType": "string",
							"name": "",
							"type": "string"
						}
					],
					"stateMutability": "view",
					"type": "function"
				},
				{
					"inputs": [],
					"name": "get_description_str",
					"outputs": [
						{
							"internalType": "string",
							"name": "",
							"type": "string"
						}
					],
					"stateMutability": "view",
					"type": "function"
				},
				{
					"inputs": [],
					"name": "increment_counter",
					"outputs": [],
					"stateMutability": "nonpayable",
					"type": "function"
				}
			],
			"devdoc": {
				"kind": "dev",
				"methods": {},
				"version": 1
			},
			"evm": {
				"assembly": "    /* \"contracts/counter.sol\":63:3229  contract ProposalContract {... */\n  mstore(0x40, 0x80)\n    /* \"contracts/counter.sol\":1463:1787  constructor(string memory title, string memory description, uint256 approve, uint256 reject, uint256 pass, uint256 total_vote_to_end, bool current_state, bool is_active) {... */\n  callvalue\n  dup1\n  iszero\n  tag_1\n  jumpi\n  0x00\n  dup1\n  revert\ntag_1:\n  pop\n  mload(0x40)\n  sub(codesize, bytecodeSize)\n  dup1\n  bytecodeSize\n  dup4\n  codecopy\n  dup2\n  dup2\n  add\n  0x40\n  mstore\n  dup2\n  add\n  swap1\n  tag_2\n  swap2\n  swap1\n  tag_3\n  jump\t// in\ntag_2:\n    /* \"contracts/counter.sol\":1652:1662  msg.sender */\n  caller\n    /* \"contracts/counter.sol\":1644:1649  owner */\n  0x00\n  dup1\n    /* \"contracts/counter.sol\":1644:1662  owner = msg.sender */\n  0x0100\n  exp\n  dup2\n  sload\n  dup2\n  0xffffffffffffffffffffffffffffffffffffffff\n  mul\n  not\n  and\n  swap1\n  dup4\n  0xffffffffffffffffffffffffffffffffffffffff\n  and\n  mul\n  or\n  swap1\n  sstore\n  pop\n    /* \"contracts/counter.sol\":1683:1779  Proposal(title, description, approve, reject, pass, total_vote_to_end, current_state, is_active) */\n  mload(0x40)\n  dup1\n  0x0100\n  add\n  0x40\n  mstore\n  dup1\n    /* \"contracts/counter.sol\":1692:1697  title */\n  dup10\n    /* \"contracts/counter.sol\":1683:1779  Proposal(title, description, approve, reject, pass, total_vote_to_end, current_state, is_active) */\n  dup2\n  mstore\n  0x20\n  add\n    /* \"contracts/counter.sol\":1699:1710  description */\n  dup9\n    /* \"contracts/counter.sol\":1683:1779  Proposal(title, description, approve, reject, pass, total_vote_to_end, current_state, is_active) */\n  dup2\n  mstore\n  0x20\n  add\n    /* \"contracts/counter.sol\":1712:1719  approve */\n  dup8\n    /* \"contracts/counter.sol\":1683:1779  Proposal(title, description, approve, reject, pass, total_vote_to_end, current_state, is_active) */\n  dup2\n  mstore\n  0x20\n  add\n    /* \"contracts/counter.sol\":1721:1727  reject */\n  dup7\n    /* \"contracts/counter.sol\":1683:1779  Proposal(title, description, approve, reject, pass, total_vote_to_end, current_state, is_active) */\n  dup2\n  mstore\n  0x20\n  add\n    /* \"contracts/counter.sol\":1729:1733  pass */\n  dup6\n    /* \"contracts/counter.sol\":1683:1779  Proposal(title, description, approve, reject, pass, total_vote_to_end, current_state, is_active) */\n  dup2\n  mstore\n  0x20\n  add\n    /* \"contracts/counter.sol\":1735:1752  total_vote_to_end */\n  dup5\n    /* \"contracts/counter.sol\":1683:1779  Proposal(title, description, approve, reject, pass, total_vote_to_end, current_state, is_active) */\n  dup2\n  mstore\n  0x20\n  add\n    /* \"contracts/counter.sol\":1754:1767  current_state */\n  dup4\n    /* \"contracts/counter.sol\":1683:1779  Proposal(title, description, approve, reject, pass, total_vote_to_end, current_state, is_active) */\n  iszero\n  iszero\n  dup2\n  mstore\n  0x20\n  add\n    /* \"contracts/counter.sol\":1769:1778  is_active */\n  dup3\n    /* \"contracts/counter.sol\":1683:1779  Proposal(title, description, approve, reject, pass, total_vote_to_end, current_state, is_active) */\n  iszero\n  iszero\n  dup2\n  mstore\n  pop\n    /* \"contracts/counter.sol\":1673:1680  counter */\n  0x02\n    /* \"contracts/counter.sol\":1673:1779  counter = Proposal(title, description, approve, reject, pass, total_vote_to_end, current_state, is_active) */\n  0x00\n  dup3\n  add\n  mload\n  dup2\n  0x00\n  add\n  swap1\n  dup2\n  tag_6\n  swap2\n  swap1\n  tag_7\n  jump\t// in\ntag_6:\n  pop\n  0x20\n  dup3\n  add\n  mload\n  dup2\n  0x01\n  add\n  swap1\n  dup2\n  tag_8\n  swap2\n  swap1\n  tag_7\n  jump\t// in\ntag_8:\n  pop\n  0x40\n  dup3\n  add\n  mload\n  dup2\n  0x02\n  add\n  sstore\n  0x60\n  dup3\n  add\n  mload\n  dup2\n  0x03\n  add\n  sstore\n  0x80\n  dup3\n  add\n  mload\n  dup2\n  0x04\n  add\n  sstore\n  0xa0\n  dup3\n  add\n  mload\n  dup2\n  0x05\n  add\n  sstore\n  0xc0\n  dup3\n  add\n  mload\n  dup2\n  0x06\n  add\n  exp(0x0100, 0x00)\n  dup2\n  sload\n  dup2\n  0xff\n  mul\n  not\n  and\n  swap1\n  dup4\n  iszero\n  iszero\n  mul\n  or\n  swap1\n  sstore\n  pop\n  0xe0\n  dup3\n  add\n  mload\n  dup2\n  0x06\n  add\n  exp(0x0100, 0x01)\n  dup2\n  sload\n  dup2\n  0xff\n  mul\n  not\n  and\n  swap1\n  dup4\n  iszero\n  iszero\n  mul\n  or\n  swap1\n  sstore\n  pop\n  swap1\n  pop\n  pop\n    /* \"contracts/counter.sol\":1463:1787  constructor(string memory title, string memory description, uint256 approve, uint256 reject, uint256 pass, uint256 total_vote_to_end, bool current_state, bool is_active) {... */\n  pop\n  pop\n  pop\n  pop\n  pop\n  pop\n  pop\n  pop\n    /* \"contracts/counter.sol\":63:3229  contract ProposalContract {... */\n  jump(tag_9)\n    /* \"#utility.yul\":7:82   */\ntag_10:\n    /* \"#utility.yul\":40:46   */\n  0x00\n    /* \"#utility.yul\":73:75   */\n  0x40\n    /* \"#utility.yul\":67:76   */\n  mload\n    /* \"#utility.yul\":57:76   */\n  swap1\n  pop\n    /* \"#utility.yul\":7:82   */\n  swap1\n  jump\t// out\n    /* \"#utility.yul\":88:205   */\ntag_11:\n    /* \"#utility.yul\":197:198   */\n  0x00\n    /* \"#utility.yul\":194:195   */\n  dup1\n    /* \"#utility.yul\":187:199   */\n  revert\n    /* \"#utility.yul\":211:328   */\ntag_12:\n    /* \"#utility.yul\":320:321   */\n  0x00\n    /* \"#utility.yul\":317:318   */\n  dup1\n    /* \"#utility.yul\":310:322   */\n  revert\n    /* \"#utility.yul\":334:451   */\ntag_13:\n    /* \"#utility.yul\":443:444   */\n  0x00\n    /* \"#utility.yul\":440:441   */\n  dup1\n    /* \"#utility.yul\":433:445   */\n  revert\n    /* \"#utility.yul\":457:574   */\ntag_14:\n    /* \"#utility.yul\":566:567   */\n  0x00\n    /* \"#utility.yul\":563:564   */\n  dup1\n    /* \"#utility.yul\":556:568   */\n  revert\n    /* \"#utility.yul\":580:682   */\ntag_15:\n    /* \"#utility.yul\":621:627   */\n  0x00\n    /* \"#utility.yul\":672:674   */\n  0x1f\n    /* \"#utility.yul\":668:675   */\n  not\n    /* \"#utility.yul\":663:665   */\n  0x1f\n    /* \"#utility.yul\":656:661   */\n  dup4\n    /* \"#utility.yul\":652:666   */\n  add\n    /* \"#utility.yul\":648:676   */\n  and\n    /* \"#utility.yul\":638:676   */\n  swap1\n  pop\n    /* \"#utility.yul\":580:682   */\n  swap2\n  swap1\n  pop\n  jump\t// out\n    /* \"#utility.yul\":688:868   */\ntag_16:\n    /* \"#utility.yul\":736:813   */\n  0x4e487b7100000000000000000000000000000000000000000000000000000000\n    /* \"#utility.yul\":733:734   */\n  0x00\n    /* \"#utility.yul\":726:814   */\n  mstore\n    /* \"#utility.yul\":833:837   */\n  0x41\n    /* \"#utility.yul\":830:831   */\n  0x04\n    /* \"#utility.yul\":823:838   */\n  mstore\n    /* \"#utility.yul\":857:861   */\n  0x24\n    /* \"#utility.yul\":854:855   */\n  0x00\n    /* \"#utility.yul\":847:862   */\n  revert\n    /* \"#utility.yul\":874:1155   */\ntag_17:\n    /* \"#utility.yul\":957:984   */\n  tag_56\n    /* \"#utility.yul\":979:983   */\n  dup3\n    /* \"#utility.yul\":957:984   */\n  tag_15\n  jump\t// in\ntag_56:\n    /* \"#utility.yul\":949:955   */\n  dup2\n    /* \"#utility.yul\":945:985   */\n  add\n    /* \"#utility.yul\":1087:1093   */\n  dup2\n    /* \"#utility.yul\":1075:1085   */\n  dup2\n    /* \"#utility.yul\":1072:1094   */\n  lt\n    /* \"#utility.yul\":1051:1069   */\n  0xffffffffffffffff\n    /* \"#utility.yul\":1039:1049   */\n  dup3\n    /* \"#utility.yul\":1036:1070   */\n  gt\n    /* \"#utility.yul\":1033:1095   */\n  or\n    /* \"#utility.yul\":1030:1118   */\n  iszero\n  tag_57\n  jumpi\n    /* \"#utility.yul\":1098:1116   */\n  tag_58\n  tag_16\n  jump\t// in\ntag_58:\n    /* \"#utility.yul\":1030:1118   */\ntag_57:\n    /* \"#utility.yul\":1138:1148   */\n  dup1\n    /* \"#utility.yul\":1134:1136   */\n  0x40\n    /* \"#utility.yul\":1127:1149   */\n  mstore\n    /* \"#utility.yul\":917:1155   */\n  pop\n    /* \"#utility.yul\":874:1155   */\n  pop\n  pop\n  jump\t// out\n    /* \"#utility.yul\":1161:1290   */\ntag_18:\n    /* \"#utility.yul\":1195:1201   */\n  0x00\n    /* \"#utility.yul\":1222:1242   */\n  tag_60\n  tag_10\n  jump\t// in\ntag_60:\n    /* \"#utility.yul\":1212:1242   */\n  swap1\n  pop\n    /* \"#utility.yul\":1251:1284   */\n  tag_61\n    /* \"#utility.yul\":1279:1283   */\n  dup3\n    /* \"#utility.yul\":1271:1277   */\n  dup3\n    /* \"#utility.yul\":1251:1284   */\n  tag_17\n  jump\t// in\ntag_61:\n    /* \"#utility.yul\":1161:1290   */\n  swap2\n  swap1\n  pop\n  jump\t// out\n    /* \"#utility.yul\":1296:1604   */\ntag_19:\n    /* \"#utility.yul\":1358:1362   */\n  0x00\n    /* \"#utility.yul\":1448:1466   */\n  0xffffffffffffffff\n    /* \"#utility.yul\":1440:1446   */\n  dup3\n    /* \"#utility.yul\":1437:1467   */\n  gt\n    /* \"#utility.yul\":1434:1490   */\n  iszero\n  tag_63\n  jumpi\n    /* \"#utility.yul\":1470:1488   */\n  tag_64\n  tag_16\n  jump\t// in\ntag_64:\n    /* \"#utility.yul\":1434:1490   */\ntag_63:\n    /* \"#utility.yul\":1508:1537   */\n  tag_65\n    /* \"#utility.yul\":1530:1536   */\n  dup3\n    /* \"#utility.yul\":1508:1537   */\n  tag_15\n  jump\t// in\ntag_65:\n    /* \"#utility.yul\":1500:1537   */\n  swap1\n  pop\n    /* \"#utility.yul\":1592:1596   */\n  0x20\n    /* \"#utility.yul\":1586:1590   */\n  dup2\n    /* \"#utility.yul\":1582:1597   */\n  add\n    /* \"#utility.yul\":1574:1597   */\n  swap1\n  pop\n    /* \"#utility.yul\":1296:1604   */\n  swap2\n  swap1\n  pop\n  jump\t// out\n    /* \"#utility.yul\":1610:1856   */\ntag_20:\n    /* \"#utility.yul\":1691:1692   */\n  0x00\n    /* \"#utility.yul\":1701:1814   */\ntag_67:\n    /* \"#utility.yul\":1715:1721   */\n  dup4\n    /* \"#utility.yul\":1712:1713   */\n  dup2\n    /* \"#utility.yul\":1709:1722   */\n  lt\n    /* \"#utility.yul\":1701:1814   */\n  iszero\n  tag_69\n  jumpi\n    /* \"#utility.yul\":1800:1801   */\n  dup1\n    /* \"#utility.yul\":1795:1798   */\n  dup3\n    /* \"#utility.yul\":1791:1802   */\n  add\n    /* \"#utility.yul\":1785:1803   */\n  mload\n    /* \"#utility.yul\":1781:1782   */\n  dup2\n    /* \"#utility.yul\":1776:1779   */\n  dup5\n    /* \"#utility.yul\":1772:1783   */\n  add\n    /* \"#utility.yul\":1765:1804   */\n  mstore\n    /* \"#utility.yul\":1737:1739   */\n  0x20\n    /* \"#utility.yul\":1734:1735   */\n  dup2\n    /* \"#utility.yul\":1730:1740   */\n  add\n    /* \"#utility.yul\":1725:1740   */\n  swap1\n  pop\n    /* \"#utility.yul\":1701:1814   */\n  jump(tag_67)\ntag_69:\n    /* \"#utility.yul\":1848:1849   */\n  0x00\n    /* \"#utility.yul\":1839:1845   */\n  dup5\n    /* \"#utility.yul\":1834:1837   */\n  dup5\n    /* \"#utility.yul\":1830:1846   */\n  add\n    /* \"#utility.yul\":1823:1850   */\n  mstore\n    /* \"#utility.yul\":1672:1856   */\n  pop\n    /* \"#utility.yul\":1610:1856   */\n  pop\n  pop\n  pop\n  jump\t// out\n    /* \"#utility.yul\":1862:2296   */\ntag_21:\n    /* \"#utility.yul\":1951:1956   */\n  0x00\n    /* \"#utility.yul\":1976:2042   */\n  tag_71\n    /* \"#utility.yul\":1992:2041   */\n  tag_72\n    /* \"#utility.yul\":2034:2040   */\n  dup5\n    /* \"#utility.yul\":1992:2041   */\n  tag_19\n  jump\t// in\ntag_72:\n    /* \"#utility.yul\":1976:2042   */\n  tag_18\n  jump\t// in\ntag_71:\n    /* \"#utility.yul\":1967:2042   */\n  swap1\n  pop\n    /* \"#utility.yul\":2065:2071   */\n  dup3\n    /* \"#utility.yul\":2058:2063   */\n  dup2\n    /* \"#utility.yul\":2051:2072   */\n  mstore\n    /* \"#utility.yul\":2103:2107   */\n  0x20\n    /* \"#utility.yul\":2096:2101   */\n  dup2\n    /* \"#utility.yul\":2092:2108   */\n  add\n    /* \"#utility.yul\":2141:2144   */\n  dup5\n    /* \"#utility.yul\":2132:2138   */\n  dup5\n    /* \"#utility.yul\":2127:2130   */\n  dup5\n    /* \"#utility.yul\":2123:2139   */\n  add\n    /* \"#utility.yul\":2120:2145   */\n  gt\n    /* \"#utility.yul\":2117:2229   */\n  iszero\n  tag_73\n  jumpi\n    /* \"#utility.yul\":2148:2227   */\n  tag_74\n  tag_14\n  jump\t// in\ntag_74:\n    /* \"#utility.yul\":2117:2229   */\ntag_73:\n    /* \"#utility.yul\":2238:2290   */\n  tag_75\n    /* \"#utility.yul\":2283:2289   */\n  dup5\n    /* \"#utility.yul\":2278:2281   */\n  dup3\n    /* \"#utility.yul\":2273:2276   */\n  dup6\n    /* \"#utility.yul\":2238:2290   */\n  tag_20\n  jump\t// in\ntag_75:\n    /* \"#utility.yul\":1957:2296   */\n  pop\n    /* \"#utility.yul\":1862:2296   */\n  swap4\n  swap3\n  pop\n  pop\n  pop\n  jump\t// out\n    /* \"#utility.yul\":2316:2671   */\ntag_22:\n    /* \"#utility.yul\":2383:2388   */\n  0x00\n    /* \"#utility.yul\":2432:2435   */\n  dup3\n    /* \"#utility.yul\":2425:2429   */\n  0x1f\n    /* \"#utility.yul\":2417:2423   */\n  dup4\n    /* \"#utility.yul\":2413:2430   */\n  add\n    /* \"#utility.yul\":2409:2436   */\n  slt\n    /* \"#utility.yul\":2399:2521   */\n  tag_77\n  jumpi\n    /* \"#utility.yul\":2440:2519   */\n  tag_78\n  tag_13\n  jump\t// in\ntag_78:\n    /* \"#utility.yul\":2399:2521   */\ntag_77:\n    /* \"#utility.yul\":2550:2556   */\n  dup2\n    /* \"#utility.yul\":2544:2557   */\n  mload\n    /* \"#utility.yul\":2575:2665   */\n  tag_79\n    /* \"#utility.yul\":2661:2664   */\n  dup5\n    /* \"#utility.yul\":2653:2659   */\n  dup3\n    /* \"#utility.yul\":2646:2650   */\n  0x20\n    /* \"#utility.yul\":2638:2644   */\n  dup7\n    /* \"#utility.yul\":2634:2651   */\n  add\n    /* \"#utility.yul\":2575:2665   */\n  tag_21\n  jump\t// in\ntag_79:\n    /* \"#utility.yul\":2566:2665   */\n  swap2\n  pop\n    /* \"#utility.yul\":2389:2671   */\n  pop\n    /* \"#utility.yul\":2316:2671   */\n  swap3\n  swap2\n  pop\n  pop\n  jump\t// out\n    /* \"#utility.yul\":2677:2754   */\ntag_23:\n    /* \"#utility.yul\":2714:2721   */\n  0x00\n    /* \"#utility.yul\":2743:2748   */\n  dup2\n    /* \"#utility.yul\":2732:2748   */\n  swap1\n  pop\n    /* \"#utility.yul\":2677:2754   */\n  swap2\n  swap1\n  pop\n  jump\t// out\n    /* \"#utility.yul\":2760:2882   */\ntag_24:\n    /* \"#utility.yul\":2833:2857   */\n  tag_82\n    /* \"#utility.yul\":2851:2856   */\n  dup2\n    /* \"#utility.yul\":2833:2857   */\n  tag_23\n  jump\t// in\ntag_82:\n    /* \"#utility.yul\":2826:2831   */\n  dup2\n    /* \"#utility.yul\":2823:2858   */\n  eq\n    /* \"#utility.yul\":2813:2876   */\n  tag_83\n  jumpi\n    /* \"#utility.yul\":2872:2873   */\n  0x00\n    /* \"#utility.yul\":2869:2870   */\n  dup1\n    /* \"#utility.yul\":2862:2874   */\n  revert\n    /* \"#utility.yul\":2813:2876   */\ntag_83:\n    /* \"#utility.yul\":2760:2882   */\n  pop\n  jump\t// out\n    /* \"#utility.yul\":2888:3031   */\ntag_25:\n    /* \"#utility.yul\":2945:2950   */\n  0x00\n    /* \"#utility.yul\":2976:2982   */\n  dup2\n    /* \"#utility.yul\":2970:2983   */\n  mload\n    /* \"#utility.yul\":2961:2983   */\n  swap1\n  pop\n    /* \"#utility.yul\":2992:3025   */\n  tag_85\n    /* \"#utility.yul\":3019:3024   */\n  dup2\n    /* \"#utility.yul\":2992:3025   */\n  tag_24\n  jump\t// in\ntag_85:\n    /* \"#utility.yul\":2888:3031   */\n  swap3\n  swap2\n  pop\n  pop\n  jump\t// out\n    /* \"#utility.yul\":3037:3127   */\ntag_26:\n    /* \"#utility.yul\":3071:3078   */\n  0x00\n    /* \"#utility.yul\":3114:3119   */\n  dup2\n    /* \"#utility.yul\":3107:3120   */\n  iszero\n    /* \"#utility.yul\":3100:3121   */\n  iszero\n    /* \"#utility.yul\":3089:3121   */\n  swap1\n  pop\n    /* \"#utility.yul\":3037:3127   */\n  swap2\n  swap1\n  pop\n  jump\t// out\n    /* \"#utility.yul\":3133:3249   */\ntag_27:\n    /* \"#utility.yul\":3203:3224   */\n  tag_88\n    /* \"#utility.yul\":3218:3223   */\n  dup2\n    /* \"#utility.yul\":3203:3224   */\n  tag_26\n  jump\t// in\ntag_88:\n    /* \"#utility.yul\":3196:3201   */\n  dup2\n    /* \"#utility.yul\":3193:3225   */\n  eq\n    /* \"#utility.yul\":3183:3243   */\n  tag_89\n  jumpi\n    /* \"#utility.yul\":3239:3240   */\n  0x00\n    /* \"#utility.yul\":3236:3237   */\n  dup1\n    /* \"#utility.yul\":3229:3241   */\n  revert\n    /* \"#utility.yul\":3183:3243   */\ntag_89:\n    /* \"#utility.yul\":3133:3249   */\n  pop\n  jump\t// out\n    /* \"#utility.yul\":3255:3392   */\ntag_28:\n    /* \"#utility.yul\":3309:3314   */\n  0x00\n    /* \"#utility.yul\":3340:3346   */\n  dup2\n    /* \"#utility.yul\":3334:3347   */\n  mload\n    /* \"#utility.yul\":3325:3347   */\n  swap1\n  pop\n    /* \"#utility.yul\":3356:3386   */\n  tag_91\n    /* \"#utility.yul\":3380:3385   */\n  dup2\n    /* \"#utility.yul\":3356:3386   */\n  tag_27\n  jump\t// in\ntag_91:\n    /* \"#utility.yul\":3255:3392   */\n  swap3\n  swap2\n  pop\n  pop\n  jump\t// out\n    /* \"#utility.yul\":3398:5180   */\ntag_3:\n    /* \"#utility.yul\":3545:3551   */\n  0x00\n    /* \"#utility.yul\":3553:3559   */\n  dup1\n    /* \"#utility.yul\":3561:3567   */\n  0x00\n    /* \"#utility.yul\":3569:3575   */\n  dup1\n    /* \"#utility.yul\":3577:3583   */\n  0x00\n    /* \"#utility.yul\":3585:3591   */\n  dup1\n    /* \"#utility.yul\":3593:3599   */\n  0x00\n    /* \"#utility.yul\":3601:3607   */\n  dup1\n    /* \"#utility.yul\":3650:3653   */\n  0x0100\n    /* \"#utility.yul\":3638:3647   */\n  dup10\n    /* \"#utility.yul\":3629:3636   */\n  dup12\n    /* \"#utility.yul\":3625:3648   */\n  sub\n    /* \"#utility.yul\":3621:3654   */\n  slt\n    /* \"#utility.yul\":3618:3738   */\n  iszero\n  tag_93\n  jumpi\n    /* \"#utility.yul\":3657:3736   */\n  tag_94\n  tag_11\n  jump\t// in\ntag_94:\n    /* \"#utility.yul\":3618:3738   */\ntag_93:\n    /* \"#utility.yul\":3798:3799   */\n  0x00\n    /* \"#utility.yul\":3787:3796   */\n  dup10\n    /* \"#utility.yul\":3783:3800   */\n  add\n    /* \"#utility.yul\":3777:3801   */\n  mload\n    /* \"#utility.yul\":3828:3846   */\n  0xffffffffffffffff\n    /* \"#utility.yul\":3820:3826   */\n  dup2\n    /* \"#utility.yul\":3817:3847   */\n  gt\n    /* \"#utility.yul\":3814:3931   */\n  iszero\n  tag_95\n  jumpi\n    /* \"#utility.yul\":3850:3929   */\n  tag_96\n  tag_12\n  jump\t// in\ntag_96:\n    /* \"#utility.yul\":3814:3931   */\ntag_95:\n    /* \"#utility.yul\":3955:4029   */\n  tag_97\n    /* \"#utility.yul\":4021:4028   */\n  dup12\n    /* \"#utility.yul\":4012:4018   */\n  dup3\n    /* \"#utility.yul\":4001:4010   */\n  dup13\n    /* \"#utility.yul\":3997:4019   */\n  add\n    /* \"#utility.yul\":3955:4029   */\n  tag_22\n  jump\t// in\ntag_97:\n    /* \"#utility.yul\":3945:4029   */\n  swap9\n  pop\n    /* \"#utility.yul\":3748:4039   */\n  pop\n    /* \"#utility.yul\":4099:4101   */\n  0x20\n    /* \"#utility.yul\":4088:4097   */\n  dup10\n    /* \"#utility.yul\":4084:4102   */\n  add\n    /* \"#utility.yul\":4078:4103   */\n  mload\n    /* \"#utility.yul\":4130:4148   */\n  0xffffffffffffffff\n    /* \"#utility.yul\":4122:4128   */\n  dup2\n    /* \"#utility.yul\":4119:4149   */\n  gt\n    /* \"#utility.yul\":4116:4233   */\n  iszero\n  tag_98\n  jumpi\n    /* \"#utility.yul\":4152:4231   */\n  tag_99\n  tag_12\n  jump\t// in\ntag_99:\n    /* \"#utility.yul\":4116:4233   */\ntag_98:\n    /* \"#utility.yul\":4257:4331   */\n  tag_100\n    /* \"#utility.yul\":4323:4330   */\n  dup12\n    /* \"#utility.yul\":4314:4320   */\n  dup3\n    /* \"#utility.yul\":4303:4312   */\n  dup13\n    /* \"#utility.yul\":4299:4321   */\n  add\n    /* \"#utility.yul\":4257:4331   */\n  tag_22\n  jump\t// in\ntag_100:\n    /* \"#utility.yul\":4247:4331   */\n  swap8\n  pop\n    /* \"#utility.yul\":4049:4341   */\n  pop\n    /* \"#utility.yul\":4380:4382   */\n  0x40\n    /* \"#utility.yul\":4406:4470   */\n  tag_101\n    /* \"#utility.yul\":4462:4469   */\n  dup12\n    /* \"#utility.yul\":4453:4459   */\n  dup3\n    /* \"#utility.yul\":4442:4451   */\n  dup13\n    /* \"#utility.yul\":4438:4460   */\n  add\n    /* \"#utility.yul\":4406:4470   */\n  tag_25\n  jump\t// in\ntag_101:\n    /* \"#utility.yul\":4396:4470   */\n  swap7\n  pop\n    /* \"#utility.yul\":4351:4480   */\n  pop\n    /* \"#utility.yul\":4519:4521   */\n  0x60\n    /* \"#utility.yul\":4545:4609   */\n  tag_102\n    /* \"#utility.yul\":4601:4608   */\n  dup12\n    /* \"#utility.yul\":4592:4598   */\n  dup3\n    /* \"#utility.yul\":4581:4590   */\n  dup13\n    /* \"#utility.yul\":4577:4599   */\n  add\n    /* \"#utility.yul\":4545:4609   */\n  tag_25\n  jump\t// in\ntag_102:\n    /* \"#utility.yul\":4535:4609   */\n  swap6\n  pop\n    /* \"#utility.yul\":4490:4619   */\n  pop\n    /* \"#utility.yul\":4658:4661   */\n  0x80\n    /* \"#utility.yul\":4685:4749   */\n  tag_103\n    /* \"#utility.yul\":4741:4748   */\n  dup12\n    /* \"#utility.yul\":4732:4738   */\n  dup3\n    /* \"#utility.yul\":4721:4730   */\n  dup13\n    /* \"#utility.yul\":4717:4739   */\n  add\n    /* \"#utility.yul\":4685:4749   */\n  tag_25\n  jump\t// in\ntag_103:\n    /* \"#utility.yul\":4675:4749   */\n  swap5\n  pop\n    /* \"#utility.yul\":4629:4759   */\n  pop\n    /* \"#utility.yul\":4798:4801   */\n  0xa0\n    /* \"#utility.yul\":4825:4889   */\n  tag_104\n    /* \"#utility.yul\":4881:4888   */\n  dup12\n    /* \"#utility.yul\":4872:4878   */\n  dup3\n    /* \"#utility.yul\":4861:4870   */\n  dup13\n    /* \"#utility.yul\":4857:4879   */\n  add\n    /* \"#utility.yul\":4825:4889   */\n  tag_25\n  jump\t// in\ntag_104:\n    /* \"#utility.yul\":4815:4889   */\n  swap4\n  pop\n    /* \"#utility.yul\":4769:4899   */\n  pop\n    /* \"#utility.yul\":4938:4941   */\n  0xc0\n    /* \"#utility.yul\":4965:5026   */\n  tag_105\n    /* \"#utility.yul\":5018:5025   */\n  dup12\n    /* \"#utility.yul\":5009:5015   */\n  dup3\n    /* \"#utility.yul\":4998:5007   */\n  dup13\n    /* \"#utility.yul\":4994:5016   */\n  add\n    /* \"#utility.yul\":4965:5026   */\n  tag_28\n  jump\t// in\ntag_105:\n    /* \"#utility.yul\":4955:5026   */\n  swap3\n  pop\n    /* \"#utility.yul\":4909:5036   */\n  pop\n    /* \"#utility.yul\":5075:5078   */\n  0xe0\n    /* \"#utility.yul\":5102:5163   */\n  tag_106\n    /* \"#utility.yul\":5155:5162   */\n  dup12\n    /* \"#utility.yul\":5146:5152   */\n  dup3\n    /* \"#utility.yul\":5135:5144   */\n  dup13\n    /* \"#utility.yul\":5131:5153   */\n  add\n    /* \"#utility.yul\":5102:5163   */\n  tag_28\n  jump\t// in\ntag_106:\n    /* \"#utility.yul\":5092:5163   */\n  swap2\n  pop\n    /* \"#utility.yul\":5046:5173   */\n  pop\n    /* \"#utility.yul\":3398:5180   */\n  swap3\n  swap6\n  swap9\n  pop\n  swap3\n  swap6\n  swap9\n  swap1\n  swap4\n  swap7\n  pop\n  jump\t// out\n    /* \"#utility.yul\":5186:5285   */\ntag_29:\n    /* \"#utility.yul\":5238:5244   */\n  0x00\n    /* \"#utility.yul\":5272:5277   */\n  dup2\n    /* \"#utility.yul\":5266:5278   */\n  mload\n    /* \"#utility.yul\":5256:5278   */\n  swap1\n  pop\n    /* \"#utility.yul\":5186:5285   */\n  swap2\n  swap1\n  pop\n  jump\t// out\n    /* \"#utility.yul\":5291:5471   */\ntag_30:\n    /* \"#utility.yul\":5339:5416   */\n  0x4e487b7100000000000000000000000000000000000000000000000000000000\n    /* \"#utility.yul\":5336:5337   */\n  0x00\n    /* \"#utility.yul\":5329:5417   */\n  mstore\n    /* \"#utility.yul\":5436:5440   */\n  0x22\n    /* \"#utility.yul\":5433:5434   */\n  0x04\n    /* \"#utility.yul\":5426:5441   */\n  mstore\n    /* \"#utility.yul\":5460:5464   */\n  0x24\n    /* \"#utility.yul\":5457:5458   */\n  0x00\n    /* \"#utility.yul\":5450:5465   */\n  revert\n    /* \"#utility.yul\":5477:5797   */\ntag_31:\n    /* \"#utility.yul\":5521:5527   */\n  0x00\n    /* \"#utility.yul\":5558:5559   */\n  0x02\n    /* \"#utility.yul\":5552:5556   */\n  dup3\n    /* \"#utility.yul\":5548:5560   */\n  div\n    /* \"#utility.yul\":5538:5560   */\n  swap1\n  pop\n    /* \"#utility.yul\":5605:5606   */\n  0x01\n    /* \"#utility.yul\":5599:5603   */\n  dup3\n    /* \"#utility.yul\":5595:5607   */\n  and\n    /* \"#utility.yul\":5626:5644   */\n  dup1\n    /* \"#utility.yul\":5616:5697   */\n  tag_110\n  jumpi\n    /* \"#utility.yul\":5682:5686   */\n  0x7f\n    /* \"#utility.yul\":5674:5680   */\n  dup3\n    /* \"#utility.yul\":5670:5687   */\n  and\n    /* \"#utility.yul\":5660:5687   */\n  swap2\n  pop\n    /* \"#utility.yul\":5616:5697   */\ntag_110:\n    /* \"#utility.yul\":5744:5746   */\n  0x20\n    /* \"#utility.yul\":5736:5742   */\n  dup3\n    /* \"#utility.yul\":5733:5747   */\n  lt\n    /* \"#utility.yul\":5713:5731   */\n  dup2\n    /* \"#utility.yul\":5710:5748   */\n  sub\n    /* \"#utility.yul\":5707:5791   */\n  tag_111\n  jumpi\n    /* \"#utility.yul\":5763:5781   */\n  tag_112\n  tag_30\n  jump\t// in\ntag_112:\n    /* \"#utility.yul\":5707:5791   */\ntag_111:\n    /* \"#utility.yul\":5528:5797   */\n  pop\n    /* \"#utility.yul\":5477:5797   */\n  swap2\n  swap1\n  pop\n  jump\t// out\n    /* \"#utility.yul\":5803:5944   */\ntag_32:\n    /* \"#utility.yul\":5852:5856   */\n  0x00\n    /* \"#utility.yul\":5875:5878   */\n  dup2\n    /* \"#utility.yul\":5867:5878   */\n  swap1\n  pop\n    /* \"#utility.yul\":5898:5901   */\n  dup2\n    /* \"#utility.yul\":5895:5896   */\n  0x00\n    /* \"#utility.yul\":5888:5902   */\n  mstore\n    /* \"#utility.yul\":5932:5936   */\n  0x20\n    /* \"#utility.yul\":5929:5930   */\n  0x00\n    /* \"#utility.yul\":5919:5937   */\n  keccak256\n    /* \"#utility.yul\":5911:5937   */\n  swap1\n  pop\n    /* \"#utility.yul\":5803:5944   */\n  swap2\n  swap1\n  pop\n  jump\t// out\n    /* \"#utility.yul\":5950:6043   */\ntag_33:\n    /* \"#utility.yul\":5987:5993   */\n  0x00\n    /* \"#utility.yul\":6034:6036   */\n  0x20\n    /* \"#utility.yul\":6029:6031   */\n  0x1f\n    /* \"#utility.yul\":6022:6027   */\n  dup4\n    /* \"#utility.yul\":6018:6032   */\n  add\n    /* \"#utility.yul\":6014:6037   */\n  div\n    /* \"#utility.yul\":6004:6037   */\n  swap1\n  pop\n    /* \"#utility.yul\":5950:6043   */\n  swap2\n  swap1\n  pop\n  jump\t// out\n    /* \"#utility.yul\":6049:6156   */\ntag_34:\n    /* \"#utility.yul\":6093:6101   */\n  0x00\n    /* \"#utility.yul\":6143:6148   */\n  dup3\n    /* \"#utility.yul\":6137:6141   */\n  dup3\n    /* \"#utility.yul\":6133:6149   */\n  shl\n    /* \"#utility.yul\":6112:6149   */\n  swap1\n  pop\n    /* \"#utility.yul\":6049:6156   */\n  swap3\n  swap2\n  pop\n  pop\n  jump\t// out\n    /* \"#utility.yul\":6162:6555   */\ntag_35:\n    /* \"#utility.yul\":6231:6237   */\n  0x00\n    /* \"#utility.yul\":6281:6282   */\n  0x08\n    /* \"#utility.yul\":6269:6279   */\n  dup4\n    /* \"#utility.yul\":6265:6283   */\n  mul\n    /* \"#utility.yul\":6304:6401   */\n  tag_117\n    /* \"#utility.yul\":6334:6400   */\n  0xffffffffffffffffffffffffffffffffffffffffffffffffffffffffffffffff\n    /* \"#utility.yul\":6323:6332   */\n  dup3\n    /* \"#utility.yul\":6304:6401   */\n  tag_34\n  jump\t// in\ntag_117:\n    /* \"#utility.yul\":6422:6461   */\n  tag_118\n    /* \"#utility.yul\":6452:6460   */\n  dup7\n    /* \"#utility.yul\":6441:6450   */\n  dup4\n    /* \"#utility.yul\":6422:6461   */\n  tag_34\n  jump\t// in\ntag_118:\n    /* \"#utility.yul\":6410:6461   */\n  swap6\n  pop\n    /* \"#utility.yul\":6494:6498   */\n  dup1\n    /* \"#utility.yul\":6490:6499   */\n  not\n    /* \"#utility.yul\":6483:6488   */\n  dup5\n    /* \"#utility.yul\":6479:6500   */\n  and\n    /* \"#utility.yul\":6470:6500   */\n  swap4\n  pop\n    /* \"#utility.yul\":6543:6547   */\n  dup1\n    /* \"#utility.yul\":6533:6541   */\n  dup7\n    /* \"#utility.yul\":6529:6548   */\n  and\n    /* \"#utility.yul\":6522:6527   */\n  dup5\n    /* \"#utility.yul\":6519:6549   */\n  or\n    /* \"#utility.yul\":6509:6549   */\n  swap3\n  pop\n    /* \"#utility.yul\":6238:6555   */\n  pop\n  pop\n    /* \"#utility.yul\":6162:6555   */\n  swap4\n  swap3\n  pop\n  pop\n  pop\n  jump\t// out\n    /* \"#utility.yul\":6561:6621   */\ntag_36:\n    /* \"#utility.yul\":6589:6592   */\n  0x00\n    /* \"#utility.yul\":6610:6615   */\n  dup2\n    /* \"#utility.yul\":6603:6615   */\n  swap1\n  pop\n    /* \"#utility.yul\":6561:6621   */\n  swap2\n  swap1\n  pop\n  jump\t// out\n    /* \"#utility.yul\":6627:6769   */\ntag_37:\n    /* \"#utility.yul\":6677:6686   */\n  0x00\n    /* \"#utility.yul\":6710:6763   */\n  tag_121\n    /* \"#utility.yul\":6728:6762   */\n  tag_122\n    /* \"#utility.yul\":6737:6761   */\n  tag_123\n    /* \"#utility.yul\":6755:6760   */\n  dup5\n    /* \"#utility.yul\":6737:6761   */\n  tag_23\n  jump\t// in\ntag_123:\n    /* \"#utility.yul\":6728:6762   */\n  tag_36\n  jump\t// in\ntag_122:\n    /* \"#utility.yul\":6710:6763   */\n  tag_23\n  jump\t// in\ntag_121:\n    /* \"#utility.yul\":6697:6763   */\n  swap1\n  pop\n    /* \"#utility.yul\":6627:6769   */\n  swap2\n  swap1\n  pop\n  jump\t// out\n    /* \"#utility.yul\":6775:6850   */\ntag_38:\n    /* \"#utility.yul\":6818:6821   */\n  0x00\n    /* \"#utility.yul\":6839:6844   */\n  dup2\n    /* \"#utility.yul\":6832:6844   */\n  swap1\n  pop\n    /* \"#utility.yul\":6775:6850   */\n  swap2\n  swap1\n  pop\n  jump\t// out\n    /* \"#utility.yul\":6856:7125   */\ntag_39:\n    /* \"#utility.yul\":6966:7005   */\n  tag_126\n    /* \"#utility.yul\":6997:7004   */\n  dup4\n    /* \"#utility.yul\":6966:7005   */\n  tag_37\n  jump\t// in\ntag_126:\n    /* \"#utility.yul\":7027:7118   */\n  tag_127\n    /* \"#utility.yul\":7076:7117   */\n  tag_128\n    /* \"#utility.yul\":7100:7116   */\n  dup3\n    /* \"#utility.yul\":7076:7117   */\n  tag_38\n  jump\t// in\ntag_128:\n    /* \"#utility.yul\":7068:7074   */\n  dup5\n    /* \"#utility.yul\":7061:7065   */\n  dup5\n    /* \"#utility.yul\":7055:7066   */\n  sload\n    /* \"#utility.yul\":7027:7118   */\n  tag_35\n  jump\t// in\ntag_127:\n    /* \"#utility.yul\":7021:7025   */\n  dup3\n    /* \"#utility.yul\":7014:7119   */\n  sstore\n    /* \"#utility.yul\":6932:7125   */\n  pop\n    /* \"#utility.yul\":6856:7125   */\n  pop\n  pop\n  pop\n  jump\t// out\n    /* \"#utility.yul\":7131:7204   */\ntag_40:\n    /* \"#utility.yul\":7176:7179   */\n  0x00\n    /* \"#utility.yul\":7131:7204   */\n  swap1\n  jump\t// out\n    /* \"#utility.yul\":7210:7399   */\ntag_41:\n    /* \"#utility.yul\":7287:7319   */\n  tag_131\n  tag_40\n  jump\t// in\ntag_131:\n    /* \"#utility.yul\":7328:7393   */\n  tag_132\n    /* \"#utility.yul\":7386:7392   */\n  dup2\n    /* \"#utility.yul\":7378:7384   */\n  dup5\n    /* \"#utility.yul\":7372:7376   */\n  dup5\n    /* \"#utility.yul\":7328:7393   */\n  tag_39\n  jump\t// in\ntag_132:\n    /* \"#utility.yul\":7263:7399   */\n  pop\n    /* \"#utility.yul\":7210:7399   */\n  pop\n  pop\n  jump\t// out\n    /* \"#utility.yul\":7405:7591   */\ntag_42:\n    /* \"#utility.yul\":7465:7585   */\ntag_134:\n    /* \"#utility.yul\":7482:7485   */\n  dup2\n    /* \"#utility.yul\":7475:7480   */\n  dup2\n    /* \"#utility.yul\":7472:7486   */\n  lt\n    /* \"#utility.yul\":7465:7585   */\n  iszero\n  tag_136\n  jumpi\n    /* \"#utility.yul\":7536:7575   */\n  tag_137\n    /* \"#utility.yul\":7573:7574   */\n  0x00\n    /* \"#utility.yul\":7566:7571   */\n  dup3\n    /* \"#utility.yul\":7536:7575   */\n  tag_41\n  jump\t// in\ntag_137:\n    /* \"#utility.yul\":7509:7510   */\n  0x01\n    /* \"#utility.yul\":7502:7507   */\n  dup2\n    /* \"#utility.yul\":7498:7511   */\n  add\n    /* \"#utility.yul\":7489:7511   */\n  swap1\n  pop\n    /* \"#utility.yul\":7465:7585   */\n  jump(tag_134)\ntag_136:\n    /* \"#utility.yul\":7405:7591   */\n  pop\n  pop\n  jump\t// out\n    /* \"#utility.yul\":7597:8140   */\ntag_43:\n    /* \"#utility.yul\":7698:7700   */\n  0x1f\n    /* \"#utility.yul\":7693:7696   */\n  dup3\n    /* \"#utility.yul\":7690:7701   */\n  gt\n    /* \"#utility.yul\":7687:8133   */\n  iszero\n  tag_139\n  jumpi\n    /* \"#utility.yul\":7732:7770   */\n  tag_140\n    /* \"#utility.yul\":7764:7769   */\n  dup2\n    /* \"#utility.yul\":7732:7770   */\n  tag_32\n  jump\t// in\ntag_140:\n    /* \"#utility.yul\":7816:7845   */\n  tag_141\n    /* \"#utility.yul\":7834:7844   */\n  dup5\n    /* \"#utility.yul\":7816:7845   */\n  tag_33\n  jump\t// in\ntag_141:\n    /* \"#utility.yul\":7806:7814   */\n  dup2\n    /* \"#utility.yul\":7802:7846   */\n  add\n    /* \"#utility.yul\":7999:8001   */\n  0x20\n    /* \"#utility.yul\":7987:7997   */\n  dup6\n    /* \"#utility.yul\":7984:8002   */\n  lt\n    /* \"#utility.yul\":7981:8030   */\n  iszero\n  tag_142\n  jumpi\n    /* \"#utility.yul\":8020:8028   */\n  dup2\n    /* \"#utility.yul\":8005:8028   */\n  swap1\n  pop\n    /* \"#utility.yul\":7981:8030   */\ntag_142:\n    /* \"#utility.yul\":8043:8123   */\n  tag_143\n    /* \"#utility.yul\":8099:8121   */\n  tag_144\n    /* \"#utility.yul\":8117:8120   */\n  dup6\n    /* \"#utility.yul\":8099:8121   */\n  tag_33\n  jump\t// in\ntag_144:\n    /* \"#utility.yul\":8089:8097   */\n  dup4\n    /* \"#utility.yul\":8085:8122   */\n  add\n    /* \"#utility.yul\":8072:8083   */\n  dup3\n    /* \"#utility.yul\":8043:8123   */\n  tag_42\n  jump\t// in\ntag_143:\n    /* \"#utility.yul\":7702:8133   */\n  pop\n  pop\n    /* \"#utility.yul\":7687:8133   */\ntag_139:\n    /* \"#utility.yul\":7597:8140   */\n  pop\n  pop\n  pop\n  jump\t// out\n    /* \"#utility.yul\":8146:8263   */\ntag_44:\n    /* \"#utility.yul\":8200:8208   */\n  0x00\n    /* \"#utility.yul\":8250:8255   */\n  dup3\n    /* \"#utility.yul\":8244:8248   */\n  dup3\n    /* \"#utility.yul\":8240:8256   */\n  shr\n    /* \"#utility.yul\":8219:8256   */\n  swap1\n  pop\n    /* \"#utility.yul\":8146:8263   */\n  swap3\n  swap2\n  pop\n  pop\n  jump\t// out\n    /* \"#utility.yul\":8269:8438   */\ntag_45:\n    /* \"#utility.yul\":8313:8319   */\n  0x00\n    /* \"#utility.yul\":8346:8397   */\n  tag_147\n    /* \"#utility.yul\":8394:8395   */\n  0x00\n    /* \"#utility.yul\":8390:8396   */\n  not\n    /* \"#utility.yul\":8382:8387   */\n  dup5\n    /* \"#utility.yul\":8379:8380   */\n  0x08\n    /* \"#utility.yul\":8375:8388   */\n  mul\n    /* \"#utility.yul\":8346:8397   */\n  tag_44\n  jump\t// in\ntag_147:\n    /* \"#utility.yul\":8342:8398   */\n  not\n    /* \"#utility.yul\":8427:8431   */\n  dup1\n    /* \"#utility.yul\":8421:8425   */\n  dup4\n    /* \"#utility.yul\":8417:8432   */\n  and\n    /* \"#utility.yul\":8407:8432   */\n  swap2\n  pop\n    /* \"#utility.yul\":8320:8438   */\n  pop\n    /* \"#utility.yul\":8269:8438   */\n  swap3\n  swap2\n  pop\n  pop\n  jump\t// out\n    /* \"#utility.yul\":8443:8738   */\ntag_46:\n    /* \"#utility.yul\":8519:8523   */\n  0x00\n    /* \"#utility.yul\":8665:8694   */\n  tag_149\n    /* \"#utility.yul\":8690:8693   */\n  dup4\n    /* \"#utility.yul\":8684:8688   */\n  dup4\n    /* \"#utility.yul\":8665:8694   */\n  tag_45\n  jump\t// in\ntag_149:\n    /* \"#utility.yul\":8657:8694   */\n  swap2\n  pop\n    /* \"#utility.yul\":8727:8730   */\n  dup3\n    /* \"#utility.yul\":8724:8725   */\n  0x02\n    /* \"#utility.yul\":8720:8731   */\n  mul\n    /* \"#utility.yul\":8714:8718   */\n  dup3\n    /* \"#utility.yul\":8711:8732   */\n  or\n    /* \"#utility.yul\":8703:8732   */\n  swap1\n  pop\n    /* \"#utility.yul\":8443:8738   */\n  swap3\n  swap2\n  pop\n  pop\n  jump\t// out\n    /* \"#utility.yul\":8743:10138   */\ntag_7:\n    /* \"#utility.yul\":8860:8897   */\n  tag_151\n    /* \"#utility.yul\":8893:8896   */\n  dup3\n    /* \"#utility.yul\":8860:8897   */\n  tag_29\n  jump\t// in\ntag_151:\n    /* \"#utility.yul\":8962:8980   */\n  0xffffffffffffffff\n    /* \"#utility.yul\":8954:8960   */\n  dup2\n    /* \"#utility.yul\":8951:8981   */\n  gt\n    /* \"#utility.yul\":8948:9004   */\n  iszero\n  tag_152\n  jumpi\n    /* \"#utility.yul\":8984:9002   */\n  tag_153\n  tag_16\n  jump\t// in\ntag_153:\n    /* \"#utility.yul\":8948:9004   */\ntag_152:\n    /* \"#utility.yul\":9028:9066   */\n  tag_154\n    /* \"#utility.yul\":9060:9064   */\n  dup3\n    /* \"#utility.yul\":9054:9065   */\n  sload\n    /* \"#utility.yul\":9028:9066   */\n  tag_31\n  jump\t// in\ntag_154:\n    /* \"#utility.yul\":9113:9180   */\n  tag_155\n    /* \"#utility.yul\":9173:9179   */\n  dup3\n    /* \"#utility.yul\":9165:9171   */\n  dup3\n    /* \"#utility.yul\":9159:9163   */\n  dup6\n    /* \"#utility.yul\":9113:9180   */\n  tag_43\n  jump\t// in\ntag_155:\n    /* \"#utility.yul\":9207:9208   */\n  0x00\n    /* \"#utility.yul\":9231:9235   */\n  0x20\n    /* \"#utility.yul\":9218:9235   */\n  swap1\n  pop\n    /* \"#utility.yul\":9263:9265   */\n  0x1f\n    /* \"#utility.yul\":9255:9261   */\n  dup4\n    /* \"#utility.yul\":9252:9266   */\n  gt\n    /* \"#utility.yul\":9280:9281   */\n  0x01\n    /* \"#utility.yul\":9275:9893   */\n  dup2\n  eq\n  tag_157\n  jumpi\n    /* \"#utility.yul\":9937:9938   */\n  0x00\n    /* \"#utility.yul\":9954:9960   */\n  dup5\n    /* \"#utility.yul\":9951:10028   */\n  iszero\n  tag_158\n  jumpi\n    /* \"#utility.yul\":10003:10012   */\n  dup3\n    /* \"#utility.yul\":9998:10001   */\n  dup8\n    /* \"#utility.yul\":9994:10013   */\n  add\n    /* \"#utility.yul\":9988:10014   */\n  mload\n    /* \"#utility.yul\":9979:10014   */\n  swap1\n  pop\n    /* \"#utility.yul\":9951:10028   */\ntag_158:\n    /* \"#utility.yul\":10054:10121   */\n  tag_159\n    /* \"#utility.yul\":10114:10120   */\n  dup6\n    /* \"#utility.yul\":10107:10112   */\n  dup3\n    /* \"#utility.yul\":10054:10121   */\n  tag_46\n  jump\t// in\ntag_159:\n    /* \"#utility.yul\":10048:10052   */\n  dup7\n    /* \"#utility.yul\":10041:10122   */\n  sstore\n    /* \"#utility.yul\":9910:10132   */\n  pop\n    /* \"#utility.yul\":9245:10132   */\n  jump(tag_156)\n    /* \"#utility.yul\":9275:9893   */\ntag_157:\n    /* \"#utility.yul\":9327:9331   */\n  0x1f\n    /* \"#utility.yul\":9323:9332   */\n  not\n    /* \"#utility.yul\":9315:9321   */\n  dup5\n    /* \"#utility.yul\":9311:9333   */\n  and\n    /* \"#utility.yul\":9361:9398   */\n  tag_160\n    /* \"#utility.yul\":9393:9397   */\n  dup7\n    /* \"#utility.yul\":9361:9398   */\n  tag_32\n  jump\t// in\ntag_160:\n    /* \"#utility.yul\":9420:9421   */\n  0x00\n    /* \"#utility.yul\":9434:9642   */\ntag_161:\n    /* \"#utility.yul\":9448:9455   */\n  dup3\n    /* \"#utility.yul\":9445:9446   */\n  dup2\n    /* \"#utility.yul\":9442:9456   */\n  lt\n    /* \"#utility.yul\":9434:9642   */\n  iszero\n  tag_163\n  jumpi\n    /* \"#utility.yul\":9527:9536   */\n  dup5\n    /* \"#utility.yul\":9522:9525   */\n  dup10\n    /* \"#utility.yul\":9518:9537   */\n  add\n    /* \"#utility.yul\":9512:9538   */\n  mload\n    /* \"#utility.yul\":9504:9510   */\n  dup3\n    /* \"#utility.yul\":9497:9539   */\n  sstore\n    /* \"#utility.yul\":9578:9579   */\n  0x01\n    /* \"#utility.yul\":9570:9576   */\n  dup3\n    /* \"#utility.yul\":9566:9580   */\n  add\n    /* \"#utility.yul\":9556:9580   */\n  swap2\n  pop\n    /* \"#utility.yul\":9625:9627   */\n  0x20\n    /* \"#utility.yul\":9614:9623   */\n  dup6\n    /* \"#utility.yul\":9610:9628   */\n  add\n    /* \"#utility.yul\":9597:9628   */\n  swap5\n  pop\n    /* \"#utility.yul\":9471:9475   */\n  0x20\n    /* \"#utility.yul\":9468:9469   */\n  dup2\n    /* \"#utility.yul\":9464:9476   */\n  add\n    /* \"#utility.yul\":9459:9476   */\n  swap1\n  pop\n    /* \"#utility.yul\":9434:9642   */\n  jump(tag_161)\ntag_163:\n    /* \"#utility.yul\":9670:9676   */\n  dup7\n    /* \"#utility.yul\":9661:9668   */\n  dup4\n    /* \"#utility.yul\":9658:9677   */\n  lt\n    /* \"#utility.yul\":9655:9834   */\n  iszero\n  tag_164\n  jumpi\n    /* \"#utility.yul\":9728:9737   */\n  dup5\n    /* \"#utility.yul\":9723:9726   */\n  dup10\n    /* \"#utility.yul\":9719:9738   */\n  add\n    /* \"#utility.yul\":9713:9739   */\n  mload\n    /* \"#utility.yul\":9771:9819   */\n  tag_165\n    /* \"#utility.yul\":9813:9817   */\n  0x1f\n    /* \"#utility.yul\":9805:9811   */\n  dup10\n    /* \"#utility.yul\":9801:9818   */\n  and\n    /* \"#utility.yul\":9790:9799   */\n  dup3\n    /* \"#utility.yul\":9771:9819   */\n  tag_45\n  jump\t// in\ntag_165:\n    /* \"#utility.yul\":9763:9769   */\n  dup4\n    /* \"#utility.yul\":9756:9820   */\n  sstore\n    /* \"#utility.yul\":9678:9834   */\n  pop\n    /* \"#utility.yul\":9655:9834   */\ntag_164:\n    /* \"#utility.yul\":9880:9881   */\n  0x01\n    /* \"#utility.yul\":9876:9877   */\n  0x02\n    /* \"#utility.yul\":9868:9874   */\n  dup9\n    /* \"#utility.yul\":9864:9878   */\n  mul\n    /* \"#utility.yul\":9860:9882   */\n  add\n    /* \"#utility.yul\":9854:9858   */\n  dup9\n    /* \"#utility.yul\":9847:9883   */\n  sstore\n    /* \"#utility.yul\":9282:9893   */\n  pop\n  pop\n  pop\n    /* \"#utility.yul\":9245:10132   */\ntag_156:\n  pop\n    /* \"#utility.yul\":8835:10138   */\n  pop\n  pop\n  pop\n    /* \"#utility.yul\":8743:10138   */\n  pop\n  pop\n  jump\t// out\n    /* \"contracts/counter.sol\":63:3229  contract ProposalContract {... */\ntag_9:\n  dataSize(sub_0)\n  dup1\n  dataOffset(sub_0)\n  0x00\n  codecopy\n  0x00\n  return\nstop\n\nsub_0: assembly {\n        /* \"contracts/counter.sol\":63:3229  contract ProposalContract {... */\n      mstore(0x40, 0x80)\n      callvalue\n      dup1\n      iszero\n      tag_1\n      jumpi\n      0x00\n      dup1\n      revert\n    tag_1:\n      pop\n      jumpi(tag_2, lt(calldatasize, 0x04))\n      shr(0xe0, calldataload(0x00))\n      dup1\n      0x1e0fd506\n      eq\n      tag_3\n      jumpi\n      dup1\n      0x24b1cc13\n      eq\n      tag_4\n      jumpi\n      dup1\n      0x82b15f37\n      eq\n      tag_5\n      jumpi\n      dup1\n      0xb4c89bea\n      eq\n      tag_6\n      jumpi\n    tag_2:\n      0x00\n      dup1\n      revert\n        /* \"contracts/counter.sol\":3113:3226  function get_description_str() external view returns(string memory) {... */\n    tag_3:\n      tag_7\n      tag_8\n      jump\t// in\n    tag_7:\n      mload(0x40)\n      tag_9\n      swap2\n      swap1\n      tag_10\n      jump\t// in\n    tag_9:\n      mload(0x40)\n      dup1\n      swap2\n      sub\n      swap1\n      return\n        /* \"contracts/counter.sol\":2998:3103  function get_counter_value() external view returns(string memory) {... */\n    tag_4:\n      tag_11\n      tag_12\n      jump\t// in\n    tag_11:\n      mload(0x40)\n      tag_13\n      swap2\n      swap1\n      tag_10\n      jump\t// in\n    tag_13:\n      mload(0x40)\n      dup1\n      swap2\n      sub\n      swap1\n      return\n        /* \"contracts/counter.sol\":2293:2380  function increment_counter() external onlyOwner {... */\n    tag_5:\n      tag_14\n      tag_15\n      jump\t// in\n    tag_14:\n      stop\n        /* \"contracts/counter.sol\":2496:2582  function decrement_counter() external onlyOwner {... */\n    tag_6:\n      tag_16\n      tag_17\n      jump\t// in\n    tag_16:\n      stop\n        /* \"contracts/counter.sol\":3113:3226  function get_description_str() external view returns(string memory) {... */\n    tag_8:\n        /* \"contracts/counter.sol\":3166:3179  string memory */\n      0x60\n        /* \"contracts/counter.sol\":3199:3206  counter */\n      0x02\n        /* \"contracts/counter.sol\":3199:3218  counter.description */\n      0x01\n      add\n        /* \"contracts/counter.sol\":3192:3218  return counter.description */\n      dup1\n      sload\n      tag_19\n      swap1\n      tag_20\n      jump\t// in\n    tag_19:\n      dup1\n      0x1f\n      add\n      0x20\n      dup1\n      swap2\n      div\n      mul\n      0x20\n      add\n      mload(0x40)\n      swap1\n      dup2\n      add\n      0x40\n      mstore\n      dup1\n      swap3\n      swap2\n      swap1\n      dup2\n      dup2\n      mstore\n      0x20\n      add\n      dup3\n      dup1\n      sload\n      tag_21\n      swap1\n      tag_20\n      jump\t// in\n    tag_21:\n      dup1\n      iszero\n      tag_22\n      jumpi\n      dup1\n      0x1f\n      lt\n      tag_23\n      jumpi\n      0x0100\n      dup1\n      dup4\n      sload\n      div\n      mul\n      dup4\n      mstore\n      swap2\n      0x20\n      add\n      swap2\n      jump(tag_22)\n    tag_23:\n      dup3\n      add\n      swap2\n      swap1\n      0x00\n      mstore\n      keccak256(0x00, 0x20)\n      swap1\n    tag_24:\n      dup2\n      sload\n      dup2\n      mstore\n      swap1\n      0x01\n      add\n      swap1\n      0x20\n      add\n      dup1\n      dup4\n      gt\n      tag_24\n      jumpi\n      dup3\n      swap1\n      sub\n      0x1f\n      and\n      dup3\n      add\n      swap2\n    tag_22:\n      pop\n      pop\n      pop\n      pop\n      pop\n      swap1\n      pop\n        /* \"contracts/counter.sol\":3113:3226  function get_description_str() external view returns(string memory) {... */\n      swap1\n      jump\t// out\n        /* \"contracts/counter.sol\":2998:3103  function get_counter_value() external view returns(string memory) {... */\n    tag_12:\n        /* \"contracts/counter.sol\":3049:3062  string memory */\n      0x60\n        /* \"contracts/counter.sol\":3082:3089  counter */\n      0x02\n        /* \"contracts/counter.sol\":3082:3095  counter.title */\n      0x00\n      add\n        /* \"contracts/counter.sol\":3075:3095  return counter.title */\n      dup1\n      sload\n      tag_26\n      swap1\n      tag_20\n      jump\t// in\n    tag_26:\n      dup1\n      0x1f\n      add\n      0x20\n      dup1\n      swap2\n      div\n      mul\n      0x20\n      add\n      mload(0x40)\n      swap1\n      dup2\n      add\n      0x40\n      mstore\n      dup1\n      swap3\n      swap2\n      swap1\n      dup2\n      dup2\n      mstore\n      0x20\n      add\n      dup3\n      dup1\n      sload\n      tag_27\n      swap1\n      tag_20\n      jump\t// in\n    tag_27:\n      dup1\n      iszero\n      tag_28\n      jumpi\n      dup1\n      0x1f\n      lt\n      tag_29\n      jumpi\n      0x0100\n      dup1\n      dup4\n      sload\n      div\n      mul\n      dup4\n      mstore\n      swap2\n      0x20\n      add\n      swap2\n      jump(tag_28)\n    tag_29:\n      dup3\n      add\n      swap2\n      swap1\n      0x00\n      mstore\n      keccak256(0x00, 0x20)\n      swap1\n    tag_30:\n      dup2\n      sload\n      dup2\n      mstore\n      swap1\n      0x01\n      add\n      swap1\n      0x20\n      add\n      dup1\n      dup4\n      gt\n      tag_30\n      jumpi\n      dup3\n      swap1\n      sub\n      0x1f\n      and\n      dup3\n      add\n      swap2\n    tag_28:\n      pop\n      pop\n      pop\n      pop\n      pop\n      swap1\n      pop\n        /* \"contracts/counter.sol\":2998:3103  function get_counter_value() external view returns(string memory) {... */\n      swap1\n      jump\t// out\n        /* \"contracts/counter.sol\":2293:2380  function increment_counter() external onlyOwner {... */\n    tag_15:\n        /* \"contracts/counter.sol\":1150:1155  owner */\n      0x00\n      dup1\n      sload\n      swap1\n      0x0100\n      exp\n      swap1\n      div\n      0xffffffffffffffffffffffffffffffffffffffff\n      and\n        /* \"contracts/counter.sol\":1136:1155  msg.sender == owner */\n      0xffffffffffffffffffffffffffffffffffffffff\n      and\n        /* \"contracts/counter.sol\":1136:1146  msg.sender */\n      caller\n        /* \"contracts/counter.sol\":1136:1155  msg.sender == owner */\n      0xffffffffffffffffffffffffffffffffffffffff\n      and\n      eq\n        /* \"contracts/counter.sol\":1128:1213  require(msg.sender == owner, \"Only the owner can increment or decrement the counter\") */\n      tag_32\n      jumpi\n      mload(0x40)\n      0x08c379a000000000000000000000000000000000000000000000000000000000\n      dup2\n      mstore\n      0x04\n      add\n      tag_33\n      swap1\n      tag_34\n      jump\t// in\n    tag_33:\n      mload(0x40)\n      dup1\n      swap2\n      sub\n      swap1\n      revert\n    tag_32:\n        /* \"contracts/counter.sol\":2371:2372  1 */\n      0x01\n        /* \"contracts/counter.sol\":2352:2359  counter */\n      0x02\n        /* \"contracts/counter.sol\":2352:2367  counter.approve */\n      dup1\n      add\n      0x00\n        /* \"contracts/counter.sol\":2352:2372  counter.approve += 1 */\n      dup3\n      dup3\n      sload\n      tag_36\n      swap2\n      swap1\n      tag_37\n      jump\t// in\n    tag_36:\n      swap3\n      pop\n      pop\n      dup2\n      swap1\n      sstore\n      pop\n        /* \"contracts/counter.sol\":2293:2380  function increment_counter() external onlyOwner {... */\n      jump\t// out\n        /* \"contracts/counter.sol\":2496:2582  function decrement_counter() external onlyOwner {... */\n    tag_17:\n        /* \"contracts/counter.sol\":1150:1155  owner */\n      0x00\n      dup1\n      sload\n      swap1\n      0x0100\n      exp\n      swap1\n      div\n      0xffffffffffffffffffffffffffffffffffffffff\n      and\n        /* \"contracts/counter.sol\":1136:1155  msg.sender == owner */\n      0xffffffffffffffffffffffffffffffffffffffff\n      and\n        /* \"contracts/counter.sol\":1136:1146  msg.sender */\n      caller\n        /* \"contracts/counter.sol\":1136:1155  msg.sender == owner */\n      0xffffffffffffffffffffffffffffffffffffffff\n      and\n      eq\n        /* \"contracts/counter.sol\":1128:1213  require(msg.sender == owner, \"Only the owner can increment or decrement the counter\") */\n      tag_39\n      jumpi\n      mload(0x40)\n      0x08c379a000000000000000000000000000000000000000000000000000000000\n      dup2\n      mstore\n      0x04\n      add\n      tag_40\n      swap1\n      tag_34\n      jump\t// in\n    tag_40:\n      mload(0x40)\n      dup1\n      swap2\n      sub\n      swap1\n      revert\n    tag_39:\n        /* \"contracts/counter.sol\":2573:2574  1 */\n      0x01\n        /* \"contracts/counter.sol\":2555:2562  counter */\n      0x02\n        /* \"contracts/counter.sol\":2555:2569  counter.reject */\n      0x03\n      add\n      0x00\n        /* \"contracts/counter.sol\":2555:2574  counter.reject -= 1 */\n      dup3\n      dup3\n      sload\n      tag_42\n      swap2\n      swap1\n      tag_43\n      jump\t// in\n    tag_42:\n      swap3\n      pop\n      pop\n      dup2\n      swap1\n      sstore\n      pop\n        /* \"contracts/counter.sol\":2496:2582  function decrement_counter() external onlyOwner {... */\n      jump\t// out\n        /* \"#utility.yul\":7:106   */\n    tag_44:\n        /* \"#utility.yul\":59:65   */\n      0x00\n        /* \"#utility.yul\":93:98   */\n      dup2\n        /* \"#utility.yul\":87:99   */\n      mload\n        /* \"#utility.yul\":77:99   */\n      swap1\n      pop\n        /* \"#utility.yul\":7:106   */\n      swap2\n      swap1\n      pop\n      jump\t// out\n        /* \"#utility.yul\":112:281   */\n    tag_45:\n        /* \"#utility.yul\":196:207   */\n      0x00\n        /* \"#utility.yul\":230:236   */\n      dup3\n        /* \"#utility.yul\":225:228   */\n      dup3\n        /* \"#utility.yul\":218:237   */\n      mstore\n        /* \"#utility.yul\":270:274   */\n      0x20\n        /* \"#utility.yul\":265:268   */\n      dup3\n        /* \"#utility.yul\":261:275   */\n      add\n        /* \"#utility.yul\":246:275   */\n      swap1\n      pop\n        /* \"#utility.yul\":112:281   */\n      swap3\n      swap2\n      pop\n      pop\n      jump\t// out\n        /* \"#utility.yul\":287:533   */\n    tag_46:\n        /* \"#utility.yul\":368:369   */\n      0x00\n        /* \"#utility.yul\":378:491   */\n    tag_58:\n        /* \"#utility.yul\":392:398   */\n      dup4\n        /* \"#utility.yul\":389:390   */\n      dup2\n        /* \"#utility.yul\":386:399   */\n      lt\n        /* \"#utility.yul\":378:491   */\n      iszero\n      tag_60\n      jumpi\n        /* \"#utility.yul\":477:478   */\n      dup1\n        /* \"#utility.yul\":472:475   */\n      dup3\n        /* \"#utility.yul\":468:479   */\n      add\n        /* \"#utility.yul\":462:480   */\n      mload\n        /* \"#utility.yul\":458:459   */\n      dup2\n        /* \"#utility.yul\":453:456   */\n      dup5\n        /* \"#utility.yul\":449:460   */\n      add\n        /* \"#utility.yul\":442:481   */\n      mstore\n        /* \"#utility.yul\":414:416   */\n      0x20\n        /* \"#utility.yul\":411:412   */\n      dup2\n        /* \"#utility.yul\":407:417   */\n      add\n        /* \"#utility.yul\":402:417   */\n      swap1\n      pop\n        /* \"#utility.yul\":378:491   */\n      jump(tag_58)\n    tag_60:\n        /* \"#utility.yul\":525:526   */\n      0x00\n        /* \"#utility.yul\":516:522   */\n      dup5\n        /* \"#utility.yul\":511:514   */\n      dup5\n        /* \"#utility.yul\":507:523   */\n      add\n        /* \"#utility.yul\":500:527   */\n      mstore\n        /* \"#utility.yul\":349:533   */\n      pop\n        /* \"#utility.yul\":287:533   */\n      pop\n      pop\n      pop\n      jump\t// out\n        /* \"#utility.yul\":539:641   */\n    tag_47:\n        /* \"#utility.yul\":580:586   */\n      0x00\n        /* \"#utility.yul\":631:633   */\n      0x1f\n        /* \"#utility.yul\":627:634   */\n      not\n        /* \"#utility.yul\":622:624   */\n      0x1f\n        /* \"#utility.yul\":615:620   */\n      dup4\n        /* \"#utility.yul\":611:625   */\n      add\n        /* \"#utility.yul\":607:635   */\n      and\n        /* \"#utility.yul\":597:635   */\n      swap1\n      pop\n        /* \"#utility.yul\":539:641   */\n      swap2\n      swap1\n      pop\n      jump\t// out\n        /* \"#utility.yul\":647:1024   */\n    tag_48:\n        /* \"#utility.yul\":735:738   */\n      0x00\n        /* \"#utility.yul\":763:802   */\n      tag_63\n        /* \"#utility.yul\":796:801   */\n      dup3\n        /* \"#utility.yul\":763:802   */\n      tag_44\n      jump\t// in\n    tag_63:\n        /* \"#utility.yul\":818:889   */\n      tag_64\n        /* \"#utility.yul\":882:888   */\n      dup2\n        /* \"#utility.yul\":877:880   */\n      dup6\n        /* \"#utility.yul\":818:889   */\n      tag_45\n      jump\t// in\n    tag_64:\n        /* \"#utility.yul\":811:889   */\n      swap4\n      pop\n        /* \"#utility.yul\":898:963   */\n      tag_65\n        /* \"#utility.yul\":956:962   */\n      dup2\n        /* \"#utility.yul\":951:954   */\n      dup6\n        /* \"#utility.yul\":944:948   */\n      0x20\n        /* \"#utility.yul\":937:942   */\n      dup7\n        /* \"#utility.yul\":933:949   */\n      add\n        /* \"#utility.yul\":898:963   */\n      tag_46\n      jump\t// in\n    tag_65:\n        /* \"#utility.yul\":988:1017   */\n      tag_66\n        /* \"#utility.yul\":1010:1016   */\n      dup2\n        /* \"#utility.yul\":988:1017   */\n      tag_47\n      jump\t// in\n    tag_66:\n        /* \"#utility.yul\":983:986   */\n      dup5\n        /* \"#utility.yul\":979:1018   */\n      add\n        /* \"#utility.yul\":972:1018   */\n      swap2\n      pop\n        /* \"#utility.yul\":739:1024   */\n      pop\n        /* \"#utility.yul\":647:1024   */\n      swap3\n      swap2\n      pop\n      pop\n      jump\t// out\n        /* \"#utility.yul\":1030:1343   */\n    tag_10:\n        /* \"#utility.yul\":1143:1147   */\n      0x00\n        /* \"#utility.yul\":1181:1183   */\n      0x20\n        /* \"#utility.yul\":1170:1179   */\n      dup3\n        /* \"#utility.yul\":1166:1184   */\n      add\n        /* \"#utility.yul\":1158:1184   */\n      swap1\n      pop\n        /* \"#utility.yul\":1230:1239   */\n      dup2\n        /* \"#utility.yul\":1224:1228   */\n      dup2\n        /* \"#utility.yul\":1220:1240   */\n      sub\n        /* \"#utility.yul\":1216:1217   */\n      0x00\n        /* \"#utility.yul\":1205:1214   */\n      dup4\n        /* \"#utility.yul\":1201:1218   */\n      add\n        /* \"#utility.yul\":1194:1241   */\n      mstore\n        /* \"#utility.yul\":1258:1336   */\n      tag_68\n        /* \"#utility.yul\":1331:1335   */\n      dup2\n        /* \"#utility.yul\":1322:1328   */\n      dup5\n        /* \"#utility.yul\":1258:1336   */\n      tag_48\n      jump\t// in\n    tag_68:\n        /* \"#utility.yul\":1250:1336   */\n      swap1\n      pop\n        /* \"#utility.yul\":1030:1343   */\n      swap3\n      swap2\n      pop\n      pop\n      jump\t// out\n        /* \"#utility.yul\":1349:1529   */\n    tag_49:\n        /* \"#utility.yul\":1397:1474   */\n      0x4e487b7100000000000000000000000000000000000000000000000000000000\n        /* \"#utility.yul\":1394:1395   */\n      0x00\n        /* \"#utility.yul\":1387:1475   */\n      mstore\n        /* \"#utility.yul\":1494:1498   */\n      0x22\n        /* \"#utility.yul\":1491:1492   */\n      0x04\n        /* \"#utility.yul\":1484:1499   */\n      mstore\n        /* \"#utility.yul\":1518:1522   */\n      0x24\n        /* \"#utility.yul\":1515:1516   */\n      0x00\n        /* \"#utility.yul\":1508:1523   */\n      revert\n        /* \"#utility.yul\":1535:1855   */\n    tag_20:\n        /* \"#utility.yul\":1579:1585   */\n      0x00\n        /* \"#utility.yul\":1616:1617   */\n      0x02\n        /* \"#utility.yul\":1610:1614   */\n      dup3\n        /* \"#utility.yul\":1606:1618   */\n      div\n        /* \"#utility.yul\":1596:1618   */\n      swap1\n      pop\n        /* \"#utility.yul\":1663:1664   */\n      0x01\n        /* \"#utility.yul\":1657:1661   */\n      dup3\n        /* \"#utility.yul\":1653:1665   */\n      and\n        /* \"#utility.yul\":1684:1702   */\n      dup1\n        /* \"#utility.yul\":1674:1755   */\n      tag_71\n      jumpi\n        /* \"#utility.yul\":1740:1744   */\n      0x7f\n        /* \"#utility.yul\":1732:1738   */\n      dup3\n        /* \"#utility.yul\":1728:1745   */\n      and\n        /* \"#utility.yul\":1718:1745   */\n      swap2\n      pop\n        /* \"#utility.yul\":1674:1755   */\n    tag_71:\n        /* \"#utility.yul\":1802:1804   */\n      0x20\n        /* \"#utility.yul\":1794:1800   */\n      dup3\n        /* \"#utility.yul\":1791:1805   */\n      lt\n        /* \"#utility.yul\":1771:1789   */\n      dup2\n        /* \"#utility.yul\":1768:1806   */\n      sub\n        /* \"#utility.yul\":1765:1849   */\n      tag_72\n      jumpi\n        /* \"#utility.yul\":1821:1839   */\n      tag_73\n      tag_49\n      jump\t// in\n    tag_73:\n        /* \"#utility.yul\":1765:1849   */\n    tag_72:\n        /* \"#utility.yul\":1586:1855   */\n      pop\n        /* \"#utility.yul\":1535:1855   */\n      swap2\n      swap1\n      pop\n      jump\t// out\n        /* \"#utility.yul\":1861:2101   */\n    tag_50:\n        /* \"#utility.yul\":2001:2035   */\n      0x4f6e6c7920746865206f776e65722063616e20696e6372656d656e74206f7220\n        /* \"#utility.yul\":1997:1998   */\n      0x00\n        /* \"#utility.yul\":1989:1995   */\n      dup3\n        /* \"#utility.yul\":1985:1999   */\n      add\n        /* \"#utility.yul\":1978:2036   */\n      mstore\n        /* \"#utility.yul\":2070:2093   */\n      0x64656372656d656e742074686520636f756e7465720000000000000000000000\n        /* \"#utility.yul\":2065:2067   */\n      0x20\n        /* \"#utility.yul\":2057:2063   */\n      dup3\n        /* \"#utility.yul\":2053:2068   */\n      add\n        /* \"#utility.yul\":2046:2094   */\n      mstore\n        /* \"#utility.yul\":1861:2101   */\n      pop\n      jump\t// out\n        /* \"#utility.yul\":2107:2473   */\n    tag_51:\n        /* \"#utility.yul\":2249:2252   */\n      0x00\n        /* \"#utility.yul\":2270:2337   */\n      tag_76\n        /* \"#utility.yul\":2334:2336   */\n      0x35\n        /* \"#utility.yul\":2329:2332   */\n      dup4\n        /* \"#utility.yul\":2270:2337   */\n      tag_45\n      jump\t// in\n    tag_76:\n        /* \"#utility.yul\":2263:2337   */\n      swap2\n      pop\n        /* \"#utility.yul\":2346:2439   */\n      tag_77\n        /* \"#utility.yul\":2435:2438   */\n      dup3\n        /* \"#utility.yul\":2346:2439   */\n      tag_50\n      jump\t// in\n    tag_77:\n        /* \"#utility.yul\":2464:2466   */\n      0x40\n        /* \"#utility.yul\":2459:2462   */\n      dup3\n        /* \"#utility.yul\":2455:2467   */\n      add\n        /* \"#utility.yul\":2448:2467   */\n      swap1\n      pop\n        /* \"#utility.yul\":2107:2473   */\n      swap2\n      swap1\n      pop\n      jump\t// out\n        /* \"#utility.yul\":2479:2898   */\n    tag_34:\n        /* \"#utility.yul\":2645:2649   */\n      0x00\n        /* \"#utility.yul\":2683:2685   */\n      0x20\n        /* \"#utility.yul\":2672:2681   */\n      dup3\n        /* \"#utility.yul\":2668:2686   */\n      add\n        /* \"#utility.yul\":2660:2686   */\n      swap1\n      pop\n        /* \"#utility.yul\":2732:2741   */\n      dup2\n        /* \"#utility.yul\":2726:2730   */\n      dup2\n        /* \"#utility.yul\":2722:2742   */\n      sub\n        /* \"#utility.yul\":2718:2719   */\n      0x00\n        /* \"#utility.yul\":2707:2716   */\n      dup4\n        /* \"#utility.yul\":2703:2720   */\n      add\n        /* \"#utility.yul\":2696:2743   */\n      mstore\n        /* \"#utility.yul\":2760:2891   */\n      tag_79\n        /* \"#utility.yul\":2886:2890   */\n      dup2\n        /* \"#utility.yul\":2760:2891   */\n      tag_51\n      jump\t// in\n    tag_79:\n        /* \"#utility.yul\":2752:2891   */\n      swap1\n      pop\n        /* \"#utility.yul\":2479:2898   */\n      swap2\n      swap1\n      pop\n      jump\t// out\n        /* \"#utility.yul\":2904:2981   */\n    tag_52:\n        /* \"#utility.yul\":2941:2948   */\n      0x00\n        /* \"#utility.yul\":2970:2975   */\n      dup2\n        /* \"#utility.yul\":2959:2975   */\n      swap1\n      pop\n        /* \"#utility.yul\":2904:2981   */\n      swap2\n      swap1\n      pop\n      jump\t// out\n        /* \"#utility.yul\":2987:3167   */\n    tag_53:\n        /* \"#utility.yul\":3035:3112   */\n      0x4e487b7100000000000000000000000000000000000000000000000000000000\n        /* \"#utility.yul\":3032:3033   */\n      0x00\n        /* \"#utility.yul\":3025:3113   */\n      mstore\n        /* \"#utility.yul\":3132:3136   */\n      0x11\n        /* \"#utility.yul\":3129:3130   */\n      0x04\n        /* \"#utility.yul\":3122:3137   */\n      mstore\n        /* \"#utility.yul\":3156:3160   */\n      0x24\n        /* \"#utility.yul\":3153:3154   */\n      0x00\n        /* \"#utility.yul\":3146:3161   */\n      revert\n        /* \"#utility.yul\":3173:3364   */\n    tag_37:\n        /* \"#utility.yul\":3213:3216   */\n      0x00\n        /* \"#utility.yul\":3232:3252   */\n      tag_83\n        /* \"#utility.yul\":3250:3251   */\n      dup3\n        /* \"#utility.yul\":3232:3252   */\n      tag_52\n      jump\t// in\n    tag_83:\n        /* \"#utility.yul\":3227:3252   */\n      swap2\n      pop\n        /* \"#utility.yul\":3266:3286   */\n      tag_84\n        /* \"#utility.yul\":3284:3285   */\n      dup4\n        /* \"#utility.yul\":3266:3286   */\n      tag_52\n      jump\t// in\n    tag_84:\n        /* \"#utility.yul\":3261:3286   */\n      swap3\n      pop\n        /* \"#utility.yul\":3309:3310   */\n      dup3\n        /* \"#utility.yul\":3306:3307   */\n      dup3\n        /* \"#utility.yul\":3302:3311   */\n      add\n        /* \"#utility.yul\":3295:3311   */\n      swap1\n      pop\n        /* \"#utility.yul\":3330:3333   */\n      dup1\n        /* \"#utility.yul\":3327:3328   */\n      dup3\n        /* \"#utility.yul\":3324:3334   */\n      gt\n        /* \"#utility.yul\":3321:3357   */\n      iszero\n      tag_85\n      jumpi\n        /* \"#utility.yul\":3337:3355   */\n      tag_86\n      tag_53\n      jump\t// in\n    tag_86:\n        /* \"#utility.yul\":3321:3357   */\n    tag_85:\n        /* \"#utility.yul\":3173:3364   */\n      swap3\n      swap2\n      pop\n      pop\n      jump\t// out\n        /* \"#utility.yul\":3370:3564   */\n    tag_43:\n        /* \"#utility.yul\":3410:3414   */\n      0x00\n        /* \"#utility.yul\":3430:3450   */\n      tag_88\n        /* \"#utility.yul\":3448:3449   */\n      dup3\n        /* \"#utility.yul\":3430:3450   */\n      tag_52\n      jump\t// in\n    tag_88:\n        /* \"#utility.yul\":3425:3450   */\n      swap2\n      pop\n        /* \"#utility.yul\":3464:3484   */\n      tag_89\n        /* \"#utility.yul\":3482:3483   */\n      dup4\n        /* \"#utility.yul\":3464:3484   */\n      tag_52\n      jump\t// in\n    tag_89:\n        /* \"#utility.yul\":3459:3484   */\n      swap3\n      pop\n        /* \"#utility.yul\":3508:3509   */\n      dup3\n        /* \"#utility.yul\":3505:3506   */\n      dup3\n        /* \"#utility.yul\":3501:3510   */\n      sub\n        /* \"#utility.yul\":3493:3510   */\n      swap1\n      pop\n        /* \"#utility.yul\":3532:3533   */\n      dup2\n        /* \"#utility.yul\":3526:3530   */\n      dup2\n        /* \"#utility.yul\":3523:3534   */\n      gt\n        /* \"#utility.yul\":3520:3557   */\n      iszero\n      tag_90\n      jumpi\n        /* \"#utility.yul\":3537:3555   */\n      tag_91\n      tag_53\n      jump\t// in\n    tag_91:\n        /* \"#utility.yul\":3520:3557   */\n    tag_90:\n        /* \"#utility.yul\":3370:3564   */\n      swap3\n      swap2\n      pop\n      pop\n      jump\t// out\n\n    auxdata: 0xa26469706673582212209ca636f73b3e4a4d514a249d5dd05c6317d341797195b887d085276fc42d5ab464736f6c63430008160033\n}\n",
				"bytecode": {
					"linkReferences": {},
					"object": "608060405234801562000010575f80fd5b5060405162000cf338038062000cf3833981810160405281019062000036919062000352565b335f806101000a81548173ffffffffffffffffffffffffffffffffffffffff021916908373ffffffffffffffffffffffffffffffffffffffff160217905550604051806101000160405280898152602001888152602001878152602001868152602001858152602001848152602001831515815260200182151581525060025f820151815f019081620000ca919062000682565b506020820151816001019081620000e2919062000682565b5060408201518160020155606082015181600301556080820151816004015560a0820151816005015560c0820151816006015f6101000a81548160ff02191690831515021790555060e08201518160060160016101000a81548160ff021916908315150217905550905050505050505050505062000766565b5f604051905090565b5f80fd5b5f80fd5b5f80fd5b5f80fd5b5f601f19601f8301169050919050565b7f4e487b71000000000000000000000000000000000000000000000000000000005f52604160045260245ffd5b620001bc8262000174565b810181811067ffffffffffffffff82111715620001de57620001dd62000184565b5b80604052505050565b5f620001f26200015b565b9050620002008282620001b1565b919050565b5f67ffffffffffffffff82111562000222576200022162000184565b5b6200022d8262000174565b9050602081019050919050565b5f5b83811015620002595780820151818401526020810190506200023c565b5f8484015250505050565b5f6200027a620002748462000205565b620001e7565b90508281526020810184848401111562000299576200029862000170565b5b620002a68482856200023a565b509392505050565b5f82601f830112620002c557620002c46200016c565b5b8151620002d784826020860162000264565b91505092915050565b5f819050919050565b620002f481620002e0565b8114620002ff575f80fd5b50565b5f815190506200031281620002e9565b92915050565b5f8115159050919050565b6200032e8162000318565b811462000339575f80fd5b50565b5f815190506200034c8162000323565b92915050565b5f805f805f805f80610100898b03121562000372576200037162000164565b5b5f89015167ffffffffffffffff81111562000392576200039162000168565b5b620003a08b828c01620002ae565b985050602089015167ffffffffffffffff811115620003c457620003c362000168565b5b620003d28b828c01620002ae565b9750506040620003e58b828c0162000302565b9650506060620003f88b828c0162000302565b95505060806200040b8b828c0162000302565b94505060a06200041e8b828c0162000302565b93505060c0620004318b828c016200033c565b92505060e0620004448b828c016200033c565b9150509295985092959890939650565b5f81519050919050565b7f4e487b71000000000000000000000000000000000000000000000000000000005f52602260045260245ffd5b5f6002820490506001821680620004a357607f821691505b602082108103620004b957620004b86200045e565b5b50919050565b5f819050815f5260205f209050919050565b5f6020601f8301049050919050565b5f82821b905092915050565b5f600883026200051d7fffffffffffffffffffffffffffffffffffffffffffffffffffffffffffffffff82620004e0565b620005298683620004e0565b95508019841693508086168417925050509392505050565b5f819050919050565b5f6200056a620005646200055e84620002e0565b62000541565b620002e0565b9050919050565b5f819050919050565b62000585836200054a565b6200059d620005948262000571565b848454620004ec565b825550505050565b5f90565b620005b3620005a5565b620005c08184846200057a565b505050565b5b81811015620005e757620005db5f82620005a9565b600181019050620005c6565b5050565b601f82111562000636576200060081620004bf565b6200060b84620004d1565b810160208510156200061b578190505b620006336200062a85620004d1565b830182620005c5565b50505b505050565b5f82821c905092915050565b5f620006585f19846008026200063b565b1980831691505092915050565b5f62000672838362000647565b9150826002028217905092915050565b6200068d8262000454565b67ffffffffffffffff811115620006a957620006a862000184565b5b620006b582546200048b565b620006c2828285620005eb565b5f60209050601f831160018114620006f8575f8415620006e3578287015190505b620006ef858262000665565b8655506200075e565b601f1984166200070886620004bf565b5f5b8281101562000731578489015182556001820191506020850194506020810190506200070a565b868310156200075157848901516200074d601f89168262000647565b8355505b6001600288020188555050505b505050505050565b61057f80620007745f395ff3fe608060405234801561000f575f80fd5b506004361061004a575f3560e01c80631e0fd5061461004e57806324b1cc131461006c57806382b15f371461008a578063b4c89bea14610094575b5f80fd5b61005661009e565b60405161006391906103a2565b60405180910390f35b610074610131565b60405161008191906103a2565b60405180910390f35b6100926101c3565b005b61009c61026d565b005b6060600260010180546100b0906103ef565b80601f01602080910402602001604051908101604052809291908181526020018280546100dc906103ef565b80156101275780601f106100fe57610100808354040283529160200191610127565b820191905f5260205f20905b81548152906001019060200180831161010a57829003601f168201915b5050505050905090565b606060025f018054610142906103ef565b80601f016020809104026020016040519081016040528092919081815260200182805461016e906103ef565b80156101b95780601f10610190576101008083540402835291602001916101b9565b820191905f5260205f20905b81548152906001019060200180831161019c57829003601f168201915b5050505050905090565b5f8054906101000a900473ffffffffffffffffffffffffffffffffffffffff1673ffffffffffffffffffffffffffffffffffffffff163373ffffffffffffffffffffffffffffffffffffffff1614610250576040517f08c379a00000000000000000000000000000000000000000000000000000000081526004016102479061048f565b60405180910390fd5b6001600280015f82825461026491906104e3565b92505081905550565b5f8054906101000a900473ffffffffffffffffffffffffffffffffffffffff1673ffffffffffffffffffffffffffffffffffffffff163373ffffffffffffffffffffffffffffffffffffffff16146102fa576040517f08c379a00000000000000000000000000000000000000000000000000000000081526004016102f19061048f565b60405180910390fd5b600160026003015f82825461030f9190610516565b92505081905550565b5f81519050919050565b5f82825260208201905092915050565b5f5b8381101561034f578082015181840152602081019050610334565b5f8484015250505050565b5f601f19601f8301169050919050565b5f61037482610318565b61037e8185610322565b935061038e818560208601610332565b6103978161035a565b840191505092915050565b5f6020820190508181035f8301526103ba818461036a565b905092915050565b7f4e487b71000000000000000000000000000000000000000000000000000000005f52602260045260245ffd5b5f600282049050600182168061040657607f821691505b602082108103610419576104186103c2565b5b50919050565b7f4f6e6c7920746865206f776e65722063616e20696e6372656d656e74206f72205f8201527f64656372656d656e742074686520636f756e7465720000000000000000000000602082015250565b5f610479603583610322565b91506104848261041f565b604082019050919050565b5f6020820190508181035f8301526104a68161046d565b9050919050565b5f819050919050565b7f4e487b71000000000000000000000000000000000000000000000000000000005f52601160045260245ffd5b5f6104ed826104ad565b91506104f8836104ad565b92508282019050808211156105105761050f6104b6565b5b92915050565b5f610520826104ad565b915061052b836104ad565b9250828203905081811115610543576105426104b6565b5b9291505056fea26469706673582212209ca636f73b3e4a4d514a249d5dd05c6317d341797195b887d085276fc42d5ab464736f6c63430008160033",
					"opcodes": "PUSH1 0x80 PUSH1 0x40 MSTORE CALLVALUE DUP1 ISZERO PUSH3 0x10 JUMPI PUSH0 DUP1 REVERT JUMPDEST POP PUSH1 0x40 MLOAD PUSH3 0xCF3 CODESIZE SUB DUP1 PUSH3 0xCF3 DUP4 CODECOPY DUP2 DUP2 ADD PUSH1 0x40 MSTORE DUP2 ADD SWAP1 PUSH3 0x36 SWAP2 SWAP1 PUSH3 0x352 JUMP JUMPDEST CALLER PUSH0 DUP1 PUSH2 0x100 EXP DUP2 SLOAD DUP2 PUSH20 0xFFFFFFFFFFFFFFFFFFFFFFFFFFFFFFFFFFFFFFFF MUL NOT AND SWAP1 DUP4 PUSH20 0xFFFFFFFFFFFFFFFFFFFFFFFFFFFFFFFFFFFFFFFF AND MUL OR SWAP1 SSTORE POP PUSH1 0x40 MLOAD DUP1 PUSH2 0x100 ADD PUSH1 0x40 MSTORE DUP1 DUP10 DUP2 MSTORE PUSH1 0x20 ADD DUP9 DUP2 MSTORE PUSH1 0x20 ADD DUP8 DUP2 MSTORE PUSH1 0x20 ADD DUP7 DUP2 MSTORE PUSH1 0x20 ADD DUP6 DUP2 MSTORE PUSH1 0x20 ADD DUP5 DUP2 MSTORE PUSH1 0x20 ADD DUP4 ISZERO ISZERO DUP2 MSTORE PUSH1 0x20 ADD DUP3 ISZERO ISZERO DUP2 MSTORE POP PUSH1 0x2 PUSH0 DUP3 ADD MLOAD DUP2 PUSH0 ADD SWAP1 DUP2 PUSH3 0xCA SWAP2 SWAP1 PUSH3 0x682 JUMP JUMPDEST POP PUSH1 0x20 DUP3 ADD MLOAD DUP2 PUSH1 0x1 ADD SWAP1 DUP2 PUSH3 0xE2 SWAP2 SWAP1 PUSH3 0x682 JUMP JUMPDEST POP PUSH1 0x40 DUP3 ADD MLOAD DUP2 PUSH1 0x2 ADD SSTORE PUSH1 0x60 DUP3 ADD MLOAD DUP2 PUSH1 0x3 ADD SSTORE PUSH1 0x80 DUP3 ADD MLOAD DUP2 PUSH1 0x4 ADD SSTORE PUSH1 0xA0 DUP3 ADD MLOAD DUP2 PUSH1 0x5 ADD SSTORE PUSH1 0xC0 DUP3 ADD MLOAD DUP2 PUSH1 0x6 ADD PUSH0 PUSH2 0x100 EXP DUP2 SLOAD DUP2 PUSH1 0xFF MUL NOT AND SWAP1 DUP4 ISZERO ISZERO MUL OR SWAP1 SSTORE POP PUSH1 0xE0 DUP3 ADD MLOAD DUP2 PUSH1 0x6 ADD PUSH1 0x1 PUSH2 0x100 EXP DUP2 SLOAD DUP2 PUSH1 0xFF MUL NOT AND SWAP1 DUP4 ISZERO ISZERO MUL OR SWAP1 SSTORE POP SWAP1 POP POP POP POP POP POP POP POP POP POP PUSH3 0x766 JUMP JUMPDEST PUSH0 PUSH1 0x40 MLOAD SWAP1 POP SWAP1 JUMP JUMPDEST PUSH0 DUP1 REVERT JUMPDEST PUSH0 DUP1 REVERT JUMPDEST PUSH0 DUP1 REVERT JUMPDEST PUSH0 DUP1 REVERT JUMPDEST PUSH0 PUSH1 0x1F NOT PUSH1 0x1F DUP4 ADD AND SWAP1 POP SWAP2 SWAP1 POP JUMP JUMPDEST PUSH32 0x4E487B7100000000000000000000000000000000000000000000000000000000 PUSH0 MSTORE PUSH1 0x41 PUSH1 0x4 MSTORE PUSH1 0x24 PUSH0 REVERT JUMPDEST PUSH3 0x1BC DUP3 PUSH3 0x174 JUMP JUMPDEST DUP2 ADD DUP2 DUP2 LT PUSH8 0xFFFFFFFFFFFFFFFF DUP3 GT OR ISZERO PUSH3 0x1DE JUMPI PUSH3 0x1DD PUSH3 0x184 JUMP JUMPDEST JUMPDEST DUP1 PUSH1 0x40 MSTORE POP POP POP JUMP JUMPDEST PUSH0 PUSH3 0x1F2 PUSH3 0x15B JUMP JUMPDEST SWAP1 POP PUSH3 0x200 DUP3 DUP3 PUSH3 0x1B1 JUMP JUMPDEST SWAP2 SWAP1 POP JUMP JUMPDEST PUSH0 PUSH8 0xFFFFFFFFFFFFFFFF DUP3 GT ISZERO PUSH3 0x222 JUMPI PUSH3 0x221 PUSH3 0x184 JUMP JUMPDEST JUMPDEST PUSH3 0x22D DUP3 PUSH3 0x174 JUMP JUMPDEST SWAP1 POP PUSH1 0x20 DUP2 ADD SWAP1 POP SWAP2 SWAP1 POP JUMP JUMPDEST PUSH0 JUMPDEST DUP4 DUP2 LT ISZERO PUSH3 0x259 JUMPI DUP1 DUP3 ADD MLOAD DUP2 DUP5 ADD MSTORE PUSH1 0x20 DUP2 ADD SWAP1 POP PUSH3 0x23C JUMP JUMPDEST PUSH0 DUP5 DUP5 ADD MSTORE POP POP POP POP JUMP JUMPDEST PUSH0 PUSH3 0x27A PUSH3 0x274 DUP5 PUSH3 0x205 JUMP JUMPDEST PUSH3 0x1E7 JUMP JUMPDEST SWAP1 POP DUP3 DUP2 MSTORE PUSH1 0x20 DUP2 ADD DUP5 DUP5 DUP5 ADD GT ISZERO PUSH3 0x299 JUMPI PUSH3 0x298 PUSH3 0x170 JUMP JUMPDEST JUMPDEST PUSH3 0x2A6 DUP5 DUP3 DUP6 PUSH3 0x23A JUMP JUMPDEST POP SWAP4 SWAP3 POP POP POP JUMP JUMPDEST PUSH0 DUP3 PUSH1 0x1F DUP4 ADD SLT PUSH3 0x2C5 JUMPI PUSH3 0x2C4 PUSH3 0x16C JUMP JUMPDEST JUMPDEST DUP2 MLOAD PUSH3 0x2D7 DUP5 DUP3 PUSH1 0x20 DUP7 ADD PUSH3 0x264 JUMP JUMPDEST SWAP2 POP POP SWAP3 SWAP2 POP POP JUMP JUMPDEST PUSH0 DUP2 SWAP1 POP SWAP2 SWAP1 POP JUMP JUMPDEST PUSH3 0x2F4 DUP2 PUSH3 0x2E0 JUMP JUMPDEST DUP2 EQ PUSH3 0x2FF JUMPI PUSH0 DUP1 REVERT JUMPDEST POP JUMP JUMPDEST PUSH0 DUP2 MLOAD SWAP1 POP PUSH3 0x312 DUP2 PUSH3 0x2E9 JUMP JUMPDEST SWAP3 SWAP2 POP POP JUMP JUMPDEST PUSH0 DUP2 ISZERO ISZERO SWAP1 POP SWAP2 SWAP1 POP JUMP JUMPDEST PUSH3 0x32E DUP2 PUSH3 0x318 JUMP JUMPDEST DUP2 EQ PUSH3 0x339 JUMPI PUSH0 DUP1 REVERT JUMPDEST POP JUMP JUMPDEST PUSH0 DUP2 MLOAD SWAP1 POP PUSH3 0x34C DUP2 PUSH3 0x323 JUMP JUMPDEST SWAP3 SWAP2 POP POP JUMP JUMPDEST PUSH0 DUP1 PUSH0 DUP1 PUSH0 DUP1 PUSH0 DUP1 PUSH2 0x100 DUP10 DUP12 SUB SLT ISZERO PUSH3 0x372 JUMPI PUSH3 0x371 PUSH3 0x164 JUMP JUMPDEST JUMPDEST PUSH0 DUP10 ADD MLOAD PUSH8 0xFFFFFFFFFFFFFFFF DUP2 GT ISZERO PUSH3 0x392 JUMPI PUSH3 0x391 PUSH3 0x168 JUMP JUMPDEST JUMPDEST PUSH3 0x3A0 DUP12 DUP3 DUP13 ADD PUSH3 0x2AE JUMP JUMPDEST SWAP9 POP POP PUSH1 0x20 DUP10 ADD MLOAD PUSH8 0xFFFFFFFFFFFFFFFF DUP2 GT ISZERO PUSH3 0x3C4 JUMPI PUSH3 0x3C3 PUSH3 0x168 JUMP JUMPDEST JUMPDEST PUSH3 0x3D2 DUP12 DUP3 DUP13 ADD PUSH3 0x2AE JUMP JUMPDEST SWAP8 POP POP PUSH1 0x40 PUSH3 0x3E5 DUP12 DUP3 DUP13 ADD PUSH3 0x302 JUMP JUMPDEST SWAP7 POP POP PUSH1 0x60 PUSH3 0x3F8 DUP12 DUP3 DUP13 ADD PUSH3 0x302 JUMP JUMPDEST SWAP6 POP POP PUSH1 0x80 PUSH3 0x40B DUP12 DUP3 DUP13 ADD PUSH3 0x302 JUMP JUMPDEST SWAP5 POP POP PUSH1 0xA0 PUSH3 0x41E DUP12 DUP3 DUP13 ADD PUSH3 0x302 JUMP JUMPDEST SWAP4 POP POP PUSH1 0xC0 PUSH3 0x431 DUP12 DUP3 DUP13 ADD PUSH3 0x33C JUMP JUMPDEST SWAP3 POP POP PUSH1 0xE0 PUSH3 0x444 DUP12 DUP3 DUP13 ADD PUSH3 0x33C JUMP JUMPDEST SWAP2 POP POP SWAP3 SWAP6 SWAP9 POP SWAP3 SWAP6 SWAP9 SWAP1 SWAP4 SWAP7 POP JUMP JUMPDEST PUSH0 DUP2 MLOAD SWAP1 POP SWAP2 SWAP1 POP JUMP JUMPDEST PUSH32 0x4E487B7100000000000000000000000000000000000000000000000000000000 PUSH0 MSTORE PUSH1 0x22 PUSH1 0x4 MSTORE PUSH1 0x24 PUSH0 REVERT JUMPDEST PUSH0 PUSH1 0x2 DUP3 DIV SWAP1 POP PUSH1 0x1 DUP3 AND DUP1 PUSH3 0x4A3 JUMPI PUSH1 0x7F DUP3 AND SWAP2 POP JUMPDEST PUSH1 0x20 DUP3 LT DUP2 SUB PUSH3 0x4B9 JUMPI PUSH3 0x4B8 PUSH3 0x45E JUMP JUMPDEST JUMPDEST POP SWAP2 SWAP1 POP JUMP JUMPDEST PUSH0 DUP2 SWAP1 POP DUP2 PUSH0 MSTORE PUSH1 0x20 PUSH0 KECCAK256 SWAP1 POP SWAP2 SWAP1 POP JUMP JUMPDEST PUSH0 PUSH1 0x20 PUSH1 0x1F DUP4 ADD DIV SWAP1 POP SWAP2 SWAP1 POP JUMP JUMPDEST PUSH0 DUP3 DUP3 SHL SWAP1 POP SWAP3 SWAP2 POP POP JUMP JUMPDEST PUSH0 PUSH1 0x8 DUP4 MUL PUSH3 0x51D PUSH32 0xFFFFFFFFFFFFFFFFFFFFFFFFFFFFFFFFFFFFFFFFFFFFFFFFFFFFFFFFFFFFFFFF DUP3 PUSH3 0x4E0 JUMP JUMPDEST PUSH3 0x529 DUP7 DUP4 PUSH3 0x4E0 JUMP JUMPDEST SWAP6 POP DUP1 NOT DUP5 AND SWAP4 POP DUP1 DUP7 AND DUP5 OR SWAP3 POP POP POP SWAP4 SWAP3 POP POP POP JUMP JUMPDEST PUSH0 DUP2 SWAP1 POP SWAP2 SWAP1 POP JUMP JUMPDEST PUSH0 PUSH3 0x56A PUSH3 0x564 PUSH3 0x55E DUP5 PUSH3 0x2E0 JUMP JUMPDEST PUSH3 0x541 JUMP JUMPDEST PUSH3 0x2E0 JUMP JUMPDEST SWAP1 POP SWAP2 SWAP1 POP JUMP JUMPDEST PUSH0 DUP2 SWAP1 POP SWAP2 SWAP1 POP JUMP JUMPDEST PUSH3 0x585 DUP4 PUSH3 0x54A JUMP JUMPDEST PUSH3 0x59D PUSH3 0x594 DUP3 PUSH3 0x571 JUMP JUMPDEST DUP5 DUP5 SLOAD PUSH3 0x4EC JUMP JUMPDEST DUP3 SSTORE POP POP POP POP JUMP JUMPDEST PUSH0 SWAP1 JUMP JUMPDEST PUSH3 0x5B3 PUSH3 0x5A5 JUMP JUMPDEST PUSH3 0x5C0 DUP2 DUP5 DUP5 PUSH3 0x57A JUMP JUMPDEST POP POP POP JUMP JUMPDEST JUMPDEST DUP2 DUP2 LT ISZERO PUSH3 0x5E7 JUMPI PUSH3 0x5DB PUSH0 DUP3 PUSH3 0x5A9 JUMP JUMPDEST PUSH1 0x1 DUP2 ADD SWAP1 POP PUSH3 0x5C6 JUMP JUMPDEST POP POP JUMP JUMPDEST PUSH1 0x1F DUP3 GT ISZERO PUSH3 0x636 JUMPI PUSH3 0x600 DUP2 PUSH3 0x4BF JUMP JUMPDEST PUSH3 0x60B DUP5 PUSH3 0x4D1 JUMP JUMPDEST DUP2 ADD PUSH1 0x20 DUP6 LT ISZERO PUSH3 0x61B JUMPI DUP2 SWAP1 POP JUMPDEST PUSH3 0x633 PUSH3 0x62A DUP6 PUSH3 0x4D1 JUMP JUMPDEST DUP4 ADD DUP3 PUSH3 0x5C5 JUMP JUMPDEST POP POP JUMPDEST POP POP POP JUMP JUMPDEST PUSH0 DUP3 DUP3 SHR SWAP1 POP SWAP3 SWAP2 POP POP JUMP JUMPDEST PUSH0 PUSH3 0x658 PUSH0 NOT DUP5 PUSH1 0x8 MUL PUSH3 0x63B JUMP JUMPDEST NOT DUP1 DUP4 AND SWAP2 POP POP SWAP3 SWAP2 POP POP JUMP JUMPDEST PUSH0 PUSH3 0x672 DUP4 DUP4 PUSH3 0x647 JUMP JUMPDEST SWAP2 POP DUP3 PUSH1 0x2 MUL DUP3 OR SWAP1 POP SWAP3 SWAP2 POP POP JUMP JUMPDEST PUSH3 0x68D DUP3 PUSH3 0x454 JUMP JUMPDEST PUSH8 0xFFFFFFFFFFFFFFFF DUP2 GT ISZERO PUSH3 0x6A9 JUMPI PUSH3 0x6A8 PUSH3 0x184 JUMP JUMPDEST JUMPDEST PUSH3 0x6B5 DUP3 SLOAD PUSH3 0x48B JUMP JUMPDEST PUSH3 0x6C2 DUP3 DUP3 DUP6 PUSH3 0x5EB JUMP JUMPDEST PUSH0 PUSH1 0x20 SWAP1 POP PUSH1 0x1F DUP4 GT PUSH1 0x1 DUP2 EQ PUSH3 0x6F8 JUMPI PUSH0 DUP5 ISZERO PUSH3 0x6E3 JUMPI DUP3 DUP8 ADD MLOAD SWAP1 POP JUMPDEST PUSH3 0x6EF DUP6 DUP3 PUSH3 0x665 JUMP JUMPDEST DUP7 SSTORE POP PUSH3 0x75E JUMP JUMPDEST PUSH1 0x1F NOT DUP5 AND PUSH3 0x708 DUP7 PUSH3 0x4BF JUMP JUMPDEST PUSH0 JUMPDEST DUP3 DUP2 LT ISZERO PUSH3 0x731 JUMPI DUP5 DUP10 ADD MLOAD DUP3 SSTORE PUSH1 0x1 DUP3 ADD SWAP2 POP PUSH1 0x20 DUP6 ADD SWAP5 POP PUSH1 0x20 DUP2 ADD SWAP1 POP PUSH3 0x70A JUMP JUMPDEST DUP7 DUP4 LT ISZERO PUSH3 0x751 JUMPI DUP5 DUP10 ADD MLOAD PUSH3 0x74D PUSH1 0x1F DUP10 AND DUP3 PUSH3 0x647 JUMP JUMPDEST DUP4 SSTORE POP JUMPDEST PUSH1 0x1 PUSH1 0x2 DUP9 MUL ADD DUP9 SSTORE POP POP POP JUMPDEST POP POP POP POP POP POP JUMP JUMPDEST PUSH2 0x57F DUP1 PUSH3 0x774 PUSH0 CODECOPY PUSH0 RETURN INVALID PUSH1 0x80 PUSH1 0x40 MSTORE CALLVALUE DUP1 ISZERO PUSH2 0xF JUMPI PUSH0 DUP1 REVERT JUMPDEST POP PUSH1 0x4 CALLDATASIZE LT PUSH2 0x4A JUMPI PUSH0 CALLDATALOAD PUSH1 0xE0 SHR DUP1 PUSH4 0x1E0FD506 EQ PUSH2 0x4E JUMPI DUP1 PUSH4 0x24B1CC13 EQ PUSH2 0x6C JUMPI DUP1 PUSH4 0x82B15F37 EQ PUSH2 0x8A JUMPI DUP1 PUSH4 0xB4C89BEA EQ PUSH2 0x94 JUMPI JUMPDEST PUSH0 DUP1 REVERT JUMPDEST PUSH2 0x56 PUSH2 0x9E JUMP JUMPDEST PUSH1 0x40 MLOAD PUSH2 0x63 SWAP2 SWAP1 PUSH2 0x3A2 JUMP JUMPDEST PUSH1 0x40 MLOAD DUP1 SWAP2 SUB SWAP1 RETURN JUMPDEST PUSH2 0x74 PUSH2 0x131 JUMP JUMPDEST PUSH1 0x40 MLOAD PUSH2 0x81 SWAP2 SWAP1 PUSH2 0x3A2 JUMP JUMPDEST PUSH1 0x40 MLOAD DUP1 SWAP2 SUB SWAP1 RETURN JUMPDEST PUSH2 0x92 PUSH2 0x1C3 JUMP JUMPDEST STOP JUMPDEST PUSH2 0x9C PUSH2 0x26D JUMP JUMPDEST STOP JUMPDEST PUSH1 0x60 PUSH1 0x2 PUSH1 0x1 ADD DUP1 SLOAD PUSH2 0xB0 SWAP1 PUSH2 0x3EF JUMP JUMPDEST DUP1 PUSH1 0x1F ADD PUSH1 0x20 DUP1 SWAP2 DIV MUL PUSH1 0x20 ADD PUSH1 0x40 MLOAD SWAP1 DUP2 ADD PUSH1 0x40 MSTORE DUP1 SWAP3 SWAP2 SWAP1 DUP2 DUP2 MSTORE PUSH1 0x20 ADD DUP3 DUP1 SLOAD PUSH2 0xDC SWAP1 PUSH2 0x3EF JUMP JUMPDEST DUP1 ISZERO PUSH2 0x127 JUMPI DUP1 PUSH1 0x1F LT PUSH2 0xFE JUMPI PUSH2 0x100 DUP1 DUP4 SLOAD DIV MUL DUP4 MSTORE SWAP2 PUSH1 0x20 ADD SWAP2 PUSH2 0x127 JUMP JUMPDEST DUP3 ADD SWAP2 SWAP1 PUSH0 MSTORE PUSH1 0x20 PUSH0 KECCAK256 SWAP1 JUMPDEST DUP2 SLOAD DUP2 MSTORE SWAP1 PUSH1 0x1 ADD SWAP1 PUSH1 0x20 ADD DUP1 DUP4 GT PUSH2 0x10A JUMPI DUP3 SWAP1 SUB PUSH1 0x1F AND DUP3 ADD SWAP2 JUMPDEST POP POP POP POP POP SWAP1 POP SWAP1 JUMP JUMPDEST PUSH1 0x60 PUSH1 0x2 PUSH0 ADD DUP1 SLOAD PUSH2 0x142 SWAP1 PUSH2 0x3EF JUMP JUMPDEST DUP1 PUSH1 0x1F ADD PUSH1 0x20 DUP1 SWAP2 DIV MUL PUSH1 0x20 ADD PUSH1 0x40 MLOAD SWAP1 DUP2 ADD PUSH1 0x40 MSTORE DUP1 SWAP3 SWAP2 SWAP1 DUP2 DUP2 MSTORE PUSH1 0x20 ADD DUP3 DUP1 SLOAD PUSH2 0x16E SWAP1 PUSH2 0x3EF JUMP JUMPDEST DUP1 ISZERO PUSH2 0x1B9 JUMPI DUP1 PUSH1 0x1F LT PUSH2 0x190 JUMPI PUSH2 0x100 DUP1 DUP4 SLOAD DIV MUL DUP4 MSTORE SWAP2 PUSH1 0x20 ADD SWAP2 PUSH2 0x1B9 JUMP JUMPDEST DUP3 ADD SWAP2 SWAP1 PUSH0 MSTORE PUSH1 0x20 PUSH0 KECCAK256 SWAP1 JUMPDEST DUP2 SLOAD DUP2 MSTORE SWAP1 PUSH1 0x1 ADD SWAP1 PUSH1 0x20 ADD DUP1 DUP4 GT PUSH2 0x19C JUMPI DUP3 SWAP1 SUB PUSH1 0x1F AND DUP3 ADD SWAP2 JUMPDEST POP POP POP POP POP SWAP1 POP SWAP1 JUMP JUMPDEST PUSH0 DUP1 SLOAD SWAP1 PUSH2 0x100 EXP SWAP1 DIV PUSH20 0xFFFFFFFFFFFFFFFFFFFFFFFFFFFFFFFFFFFFFFFF AND PUSH20 0xFFFFFFFFFFFFFFFFFFFFFFFFFFFFFFFFFFFFFFFF AND CALLER PUSH20 0xFFFFFFFFFFFFFFFFFFFFFFFFFFFFFFFFFFFFFFFF AND EQ PUSH2 0x250 JUMPI PUSH1 0x40 MLOAD PUSH32 0x8C379A000000000000000000000000000000000000000000000000000000000 DUP2 MSTORE PUSH1 0x4 ADD PUSH2 0x247 SWAP1 PUSH2 0x48F JUMP JUMPDEST PUSH1 0x40 MLOAD DUP1 SWAP2 SUB SWAP1 REVERT JUMPDEST PUSH1 0x1 PUSH1 0x2 DUP1 ADD PUSH0 DUP3 DUP3 SLOAD PUSH2 0x264 SWAP2 SWAP1 PUSH2 0x4E3 JUMP JUMPDEST SWAP3 POP POP DUP2 SWAP1 SSTORE POP JUMP JUMPDEST PUSH0 DUP1 SLOAD SWAP1 PUSH2 0x100 EXP SWAP1 DIV PUSH20 0xFFFFFFFFFFFFFFFFFFFFFFFFFFFFFFFFFFFFFFFF AND PUSH20 0xFFFFFFFFFFFFFFFFFFFFFFFFFFFFFFFFFFFFFFFF AND CALLER PUSH20 0xFFFFFFFFFFFFFFFFFFFFFFFFFFFFFFFFFFFFFFFF AND EQ PUSH2 0x2FA JUMPI PUSH1 0x40 MLOAD PUSH32 0x8C379A000000000000000000000000000000000000000000000000000000000 DUP2 MSTORE PUSH1 0x4 ADD PUSH2 0x2F1 SWAP1 PUSH2 0x48F JUMP JUMPDEST PUSH1 0x40 MLOAD DUP1 SWAP2 SUB SWAP1 REVERT JUMPDEST PUSH1 0x1 PUSH1 0x2 PUSH1 0x3 ADD PUSH0 DUP3 DUP3 SLOAD PUSH2 0x30F SWAP2 SWAP1 PUSH2 0x516 JUMP JUMPDEST SWAP3 POP POP DUP2 SWAP1 SSTORE POP JUMP JUMPDEST PUSH0 DUP2 MLOAD SWAP1 POP SWAP2 SWAP1 POP JUMP JUMPDEST PUSH0 DUP3 DUP3 MSTORE PUSH1 0x20 DUP3 ADD SWAP1 POP SWAP3 SWAP2 POP POP JUMP JUMPDEST PUSH0 JUMPDEST DUP4 DUP2 LT ISZERO PUSH2 0x34F JUMPI DUP1 DUP3 ADD MLOAD DUP2 DUP5 ADD MSTORE PUSH1 0x20 DUP2 ADD SWAP1 POP PUSH2 0x334 JUMP JUMPDEST PUSH0 DUP5 DUP5 ADD MSTORE POP POP POP POP JUMP JUMPDEST PUSH0 PUSH1 0x1F NOT PUSH1 0x1F DUP4 ADD AND SWAP1 POP SWAP2 SWAP1 POP JUMP JUMPDEST PUSH0 PUSH2 0x374 DUP3 PUSH2 0x318 JUMP JUMPDEST PUSH2 0x37E DUP2 DUP6 PUSH2 0x322 JUMP JUMPDEST SWAP4 POP PUSH2 0x38E DUP2 DUP6 PUSH1 0x20 DUP7 ADD PUSH2 0x332 JUMP JUMPDEST PUSH2 0x397 DUP2 PUSH2 0x35A JUMP JUMPDEST DUP5 ADD SWAP2 POP POP SWAP3 SWAP2 POP POP JUMP JUMPDEST PUSH0 PUSH1 0x20 DUP3 ADD SWAP1 POP DUP2 DUP2 SUB PUSH0 DUP4 ADD MSTORE PUSH2 0x3BA DUP2 DUP5 PUSH2 0x36A JUMP JUMPDEST SWAP1 POP SWAP3 SWAP2 POP POP JUMP JUMPDEST PUSH32 0x4E487B7100000000000000000000000000000000000000000000000000000000 PUSH0 MSTORE PUSH1 0x22 PUSH1 0x4 MSTORE PUSH1 0x24 PUSH0 REVERT JUMPDEST PUSH0 PUSH1 0x2 DUP3 DIV SWAP1 POP PUSH1 0x1 DUP3 AND DUP1 PUSH2 0x406 JUMPI PUSH1 0x7F DUP3 AND SWAP2 POP JUMPDEST PUSH1 0x20 DUP3 LT DUP2 SUB PUSH2 0x419 JUMPI PUSH2 0x418 PUSH2 0x3C2 JUMP JUMPDEST JUMPDEST POP SWAP2 SWAP1 POP JUMP JUMPDEST PUSH32 0x4F6E6C7920746865206F776E65722063616E20696E6372656D656E74206F7220 PUSH0 DUP3 ADD MSTORE PUSH32 0x64656372656D656E742074686520636F756E7465720000000000000000000000 PUSH1 0x20 DUP3 ADD MSTORE POP JUMP JUMPDEST PUSH0 PUSH2 0x479 PUSH1 0x35 DUP4 PUSH2 0x322 JUMP JUMPDEST SWAP2 POP PUSH2 0x484 DUP3 PUSH2 0x41F JUMP JUMPDEST PUSH1 0x40 DUP3 ADD SWAP1 POP SWAP2 SWAP1 POP JUMP JUMPDEST PUSH0 PUSH1 0x20 DUP3 ADD SWAP1 POP DUP2 DUP2 SUB PUSH0 DUP4 ADD MSTORE PUSH2 0x4A6 DUP2 PUSH2 0x46D JUMP JUMPDEST SWAP1 POP SWAP2 SWAP1 POP JUMP JUMPDEST PUSH0 DUP2 SWAP1 POP SWAP2 SWAP1 POP JUMP JUMPDEST PUSH32 0x4E487B7100000000000000000000000000000000000000000000000000000000 PUSH0 MSTORE PUSH1 0x11 PUSH1 0x4 MSTORE PUSH1 0x24 PUSH0 REVERT JUMPDEST PUSH0 PUSH2 0x4ED DUP3 PUSH2 0x4AD JUMP JUMPDEST SWAP2 POP PUSH2 0x4F8 DUP4 PUSH2 0x4AD JUMP JUMPDEST SWAP3 POP DUP3 DUP3 ADD SWAP1 POP DUP1 DUP3 GT ISZERO PUSH2 0x510 JUMPI PUSH2 0x50F PUSH2 0x4B6 JUMP JUMPDEST JUMPDEST SWAP3 SWAP2 POP POP JUMP JUMPDEST PUSH0 PUSH2 0x520 DUP3 PUSH2 0x4AD JUMP JUMPDEST SWAP2 POP PUSH2 0x52B DUP4 PUSH2 0x4AD JUMP JUMPDEST SWAP3 POP DUP3 DUP3 SUB SWAP1 POP DUP2 DUP2 GT ISZERO PUSH2 0x543 JUMPI PUSH2 0x542 PUSH2 0x4B6 JUMP JUMPDEST JUMPDEST SWAP3 SWAP2 POP POP JUMP INVALID LOG2 PUSH5 0x6970667358 0x22 SLT KECCAK256 SWAP13 0xA6 CALLDATASIZE 0xF7 EXTCODESIZE RETURNDATACOPY 0x4A 0x4D MLOAD 0x4A 0x24 SWAP14 0x5D 0xD0 0x5C PUSH4 0x17D34179 PUSH18 0x95B887D085276FC42D5AB464736F6C634300 ADDMOD AND STOP CALLER "
				},
				"gasEstimates": {
					"creation": {
						"codeDepositCost": "281400",
						"executionCost": "infinite",
						"totalCost": "infinite"
					},
					"external": {
						"decrement_counter()": "infinite",
						"get_counter_value()": "infinite",
						"get_description_str()": "infinite",
						"increment_counter()": "infinite"
					}
				},
				"methodIdentifiers": {
					"decrement_counter()": "b4c89bea",
					"get_counter_value()": "24b1cc13",
					"get_description_str()": "1e0fd506",
					"increment_counter()": "82b15f37"
				}
			},
			"storageLayout": {
				"storage": [
					{
						"astId": 3,
						"contract": "contracts/counter.sol:ProposalContract",
						"label": "owner",
						"offset": 0,
						"slot": "0",
						"type": "t_address"
					},
					{
						"astId": 25,
						"contract": "contracts/counter.sol:ProposalContract",
						"label": "proposal_history",
						"offset": 0,
						"slot": "1",
						"type": "t_mapping(t_uint256,t_struct(Proposal)20_storage)"
					},
					{
						"astId": 28,
						"contract": "contracts/counter.sol:ProposalContract",
						"label": "counter",
						"offset": 0,
						"slot": "2",
						"type": "t_struct(Proposal)20_storage"
					}
				],
				"types": {
					"t_address": {
						"encoding": "inplace",
						"label": "address",
						"numberOfBytes": "20"
					},
					"t_bool": {
						"encoding": "inplace",
						"label": "bool",
						"numberOfBytes": "1"
					},
					"t_mapping(t_uint256,t_struct(Proposal)20_storage)": {
						"encoding": "mapping",
						"key": "t_uint256",
						"label": "mapping(uint256 => struct ProposalContract.Proposal)",
						"numberOfBytes": "32",
						"value": "t_struct(Proposal)20_storage"
					},
					"t_string_storage": {
						"encoding": "bytes",
						"label": "string",
						"numberOfBytes": "32"
					},
					"t_struct(Proposal)20_storage": {
						"encoding": "inplace",
						"label": "struct ProposalContract.Proposal",
						"members": [
							{
								"astId": 5,
								"contract": "contracts/counter.sol:ProposalContract",
								"label": "title",
								"offset": 0,
								"slot": "0",
								"type": "t_string_storage"
							},
							{
								"astId": 7,
								"contract": "contracts/counter.sol:ProposalContract",
								"label": "description",
								"offset": 0,
								"slot": "1",
								"type": "t_string_storage"
							},
							{
								"astId": 9,
								"contract": "contracts/counter.sol:ProposalContract",
								"label": "approve",
								"offset": 0,
								"slot": "2",
								"type": "t_uint256"
							},
							{
								"astId": 11,
								"contract": "contracts/counter.sol:ProposalContract",
								"label": "reject",
								"offset": 0,
								"slot": "3",
								"type": "t_uint256"
							},
							{
								"astId": 13,
								"contract": "contracts/counter.sol:ProposalContract",
								"label": "pass",
								"offset": 0,
								"slot": "4",
								"type": "t_uint256"
							},
							{
								"astId": 15,
								"contract": "contracts/counter.sol:ProposalContract",
								"label": "total_vote_to_end",
								"offset": 0,
								"slot": "5",
								"type": "t_uint256"
							},
							{
								"astId": 17,
								"contract": "contracts/counter.sol:ProposalContract",
								"label": "current_state",
								"offset": 0,
								"slot": "6",
								"type": "t_bool"
							},
							{
								"astId": 19,
								"contract": "contracts/counter.sol:ProposalContract",
								"label": "is_active",
								"offset": 1,
								"slot": "6",
								"type": "t_bool"
							}
						],
						"numberOfBytes": "224"
					},
					"t_uint256": {
						"encoding": "inplace",
						"label": "uint256",
						"numberOfBytes": "32"
					}
				}
			},
			"userdoc": {
				"kind": "user",
				"methods": {},
				"version": 1
			}
		}
	}
}